:020000040800F2
:100000000050002021020008270200082B020008EF
:1000100043020008470200085F02000800000000D9
:10002000000000000000000000000000770200084F
:100030007B020008000000007F0200088302000825
:100040009102000891020008910200089102000844
:100050009102000891020008B90800089102000806
:100060009102000891020008910200089102000824
:100070009102000891020008910200089102000814
:100080009102000891020008910200089102000804
:1000900091020008910200089102000891020008F4
:1000A00091020008910200089102000891020008E4
:1000B00091020008910200089102000891020008D4
:1000C00091020008910200089102000891020008C4
:1000D00091020008910200089102000891020008B4
:1000E000910200089102000891020008000000003F
:1000F0000000000000000000000000000000000000
:1001000000000000000000005FF808F100B583B0B7
:1001100000F0DEF8304B314A1360314A1360314B46
:10012000314A32498B4204D21168196004330432D7
:10013000F7E72A4B1A682E4B9A4200D0FEE7284B6D
:100140001A682C4B9A42F9D1234B2B4A13602B4A45
:1001500013602B4B02E000221A600433294A9342B9
:10016000F9D3254B1B6813B9244B1B6803B1FEE779
:1001700000F0BAF8694601A800F0A2F8224C234B1F
:10018000E41AA4100025AC4214DC214C214BE41AE3
:10019000A4100025AC4213DC0099019800F084FB08
:1001A00005461D4C1D4BE41AA410002C0EDC2846FD
:1001B00000F084F8154B53F8253098470135E2E7F5
:1001C000144B53F8253098470135E3E7013C134BB6
:1001D00053F824309847E8E7BABADECA0000002096
:1001E0002000002000000020C40800082400002097
:1001F0007856341232547698240000202C000020C7
:100200002400002030000020BC020008BC020008CE
:10021000BC020008BC020008BC020008BC020008C6
:1002200008B5FFF773FF00BEFEE71EF0040F0CBF1A
:10023000EFF30880EFF309807146124A104700BEC1
:10024000FEE700BEFEE71EF0040F0CBFEFF30880D0
:10025000EFF3098071460C4A104700BEFEE71EF01E
:10026000040F0CBFEFF30880EFF309807146074AD3
:10027000104700BEFEE700BEFEE700BEFEE700BE80
:10028000FEE770473F0200085B02000873020008A7
:0402900000BEFEE7C7
:10029400C40800080000002024000020C40800084E
:1002A40000000000000000002400002030000020B6
:0802B400000000000000000042
:1002BC00FEE7000001230360014B0B60704700BF99
:1002CC000400002008B500F073F8024A024B9A6053
:1002DC0008BD00BF0000000800ED00E008B500F00C
:1002EC008FF808BD82B00023019300932C4A136849
:1002FC0043F4803313602A4B1B6803F400330093E0
:10030C00019B01330193009B1BB9019BB3F5A06FBB
:10031C00F1D1234B1B6813F4003F06D0012300934B
:10032C00009B012B04D002B0704700230093F7E729
:10033C001C4B1A6842F010021A601A6822F0030271
:10034C001A601A6842F002021A60A3F580535A68C8
:10035C005A605A685A605A6842F480625A605A6805
:10036C0022F47C125A605A6842F4E8125A601A68F5
:10037C0042F080721A600A4B1B6813F0007FFAD0AF
:10038C00074B5A6822F003025A605A6842F0020284
:10039C005A60034B5B6803F00C03082BF9D1C2E7DE
:1003AC00001002400020024008B5FFF79BFF08BD7B
:1003BC0008B5104B1A6842F001021A6059680E4ACF
:1003CC000A405A601A6822F0847222F480321A6051
:1003DC001A6822F480221A605A6822F4FE025A60CB
:1003EC004FF41F029A60FFF7DFFF044B4FF00062DF
:1003FC009A6008BD001002400000FFF800ED00E01C
:10040C001F4B5B6803F00C03042B15D0082B17D083
:10041C001BB11C4B1C4A1A6002E01A4B1A4A1A6098
:10042C00174B5B68C3F30313184AD35CDAB2154954
:10043C000B68D3400B607047124B134A1A60EFE7FE
:10044C000F4A53685268C3F38343023312F4803F5C
:10045C000AD00B4A526812F4003F0BD00C4A02FB34
:10046C0003F3084A1360DBE7094A02FB03F3054A6E
:10047C001360D5E7044A02FB03F3024A1360CFE78B
:10048C00001002401C00002000127A000C0000201A
:10049C0000093D0038B504460D460021022000F04D
:1004AC0095F9032C13D9072C08D90B2C0AD90F2C2E
:1004BC0021D8A4F10C03DCB2032309E0231FDCB226
:1004CC00012305E0A4F10803DCB2022300E00023C1
:1004DC000A4A023352F82310A4000F20A04021EA4C
:1004EC00000142F8231052F8231005FA04F40C43CF
:1004FC0042F8234038BD0023EAE700BF000001406A
:10050C0030B403784178847817480268012505FADD
:10051C0003F31A430260A94211D051B1022914D03D
:10052C00012C1CD010490A6922EA03030B6130BC70
:10053C0070470D498A6842F001028A60F0E70A4967
:10054C00CA6842F00102CA60EAE7074A916841F0C2
:10055C0001019160D16841F00101D160E0E70249ED
:10056C000A6913430B61E2E70004014008B5012955
:10057C0009D0184B98421ED0174B984220D0174BDD
:10058C00984222D008BD134B98420AD0124B984285
:10059C000CD0124B9842F5D10421022000F016F930
:1005AC00F0E70221084600F011F9EBE703210220E5
:1005BC0000F00CF9E6E70221084600F02DF9E1E71E
:1005CC000321022000F028F9DCE70421022000F0CE
:1005DC0023F9D7E700080140000C0140001001404E
:1005EC0070B505460479467901210068FFF7BEFF16
:1005FC00072C10D9083CE4B229684B68A4000F22E0
:10060C00A24023EA02034B602A68536806FA04F4FA
:10061C001C43546070BD29680B68A4000F22A240D3
:10062C0023EA02030B602A68136806FA04F41C43DD
:10063C001460EFE7012A04D0012303FA01F14161B0
:10064C007047012303FA01F101617047C36801226D
:10065C0002FA01F14B40C3607047000038B5044604
:10066C0001210068FFF782FF2368124A93421BD0D6
:10067C0002F58062934219D002F58062934217D042
:10068C0000212079FFF706FF254615F9070FC0B2A8
:10069C0000F058F8284600F081F8062000F068F8C1
:1006AC00201DFFF72DFF38BD0021EAE70121E8E707
:1006BC000221E6E70008014030B589B0114D0395E1
:1006CC0000248DF8104008238DF8113003A8FFF793
:1006DC0087FF012221462846FFF7ACFF00958DF8D5
:1006EC0004408DF8064001238DF8053006238DF863
:1006FC0007308DF808408DF809406846FFF7AEFFCB
:10070C0009B030BD000C014008B5062000F030F8EF
:10071C0001210248FFF79AFF08BD00BF000C014001
:10072C0000B587B0064B019301238DF808308DF886
:10073C00093001A8FFF754FF07B05DF804FB00BFB8
:10074C00000C01401F2809D93B2806D82038C0B21C
:10075C00012303FA00F0044B18607047012303FADD
:10076C0000F0024B1860704704E100E000E100E08B
:10077C001F2809D93B2806D82038C0B2012303FA18
:10078C0000F0044B18607047012303FA00F0024B91
:10079C001860704784E200E080E200E090F90020ED
:1007AC004178837843EA8103DBB2002A06DB9200AE
:1007BC0002F1604202F564421B011360014B024AD4
:1007CC001A60704730ED00E00005FA051F291CD8AF
:1007DC0001280BD010B1022810D070470B480368C9
:1007EC00012202FA01F119430160704708480368BD
:1007FC00012202FA01F119430160704705480368B0
:10080C00012202FA01F119430160704714100240F1
:10081C001C100240181002401F291FD801280CD0B0
:10082C0010B1022812D070470D480368012202FA59
:10083C0001F123EA0101016070470A4803680122B3
:10084C0002FA01F123EA01010160704706480368CE
:10085C00012202FA01F123EA01010160704700BF95
:10086C00141002401C10024018100240034B4FF4AD
:10087C0080321A60043301221A6070470010024063
:10088C00002205E000BF0133B3F5167FFADB01321D
:10089C00B2F5FA7F01DA0023F6E7704708B5FFF7E7
:1008AC00E5FFFFF73DFFFFF707FFFEE708B5FFF792
:0808BC00E7FFFFF729FF08BD6B
:1008C40078563412280000200000000000000000C8
:1008D40000000000010203040607080900A24A04FC
:0408E400325476987C
:040000050800010DE1
:00000001FF
