:020000040800F2
:100000000050002021020008270200082B020008EF
:1000100043020008470200085F02000800000000D9
:10002000000000000000000000000000770200084F
:100030007B020008000000007F0200088302000825
:100040009102000891020008910200089102000844
:100050009102000891020008910200089102000834
:100060009102000891020008910200089102000824
:100070009102000891020008910200089102000814
:100080009102000891020008910200089102000804
:1000900091020008910200089102000891020008F4
:1000A00091020008910200089102000891020008E4
:1000B00091020008910200089102000891020008D4
:1000C00091020008910200089102000891020008C4
:1000D00091020008910200089102000891020008B4
:1000E000910200089102000891020008000000003F
:1000F0000000000000000000000000000000000000
:1001000000000000000000005FF808F100B583B0B7
:1001100000F0DEF8304B314A1360314A1360314B46
:10012000314A32498B4204D21168196004330432D7
:10013000F7E72A4B1A682E4B9A4200D0FEE7284B6D
:100140001A682C4B9A42F9D1234B2B4A13602B4A45
:1001500013602B4B02E000221A600433294A9342B9
:10016000F9D3254B1B6813B9244B1B6803B1FEE779
:1001700000F0BAF8694601A800F0A2F8224C234B1F
:10018000E41AA4100025AC4214DC214C214BE41AE3
:10019000A4100025AC4213DC0099019800F0EAFAA3
:1001A00005461D4C1D4BE41AA410002C0EDC2846FD
:1001B00000F084F8154B53F8253098470135E2E7F5
:1001C000144B53F8253098470135E3E7013C134BB6
:1001D00053F824309847E8E7BABADECA0000002096
:1001E000C00000200000002088070008C400002094
:1001F0007856341232547698C4000020CC00002087
:10020000C4000020D0000020BC020008BC0200088E
:10021000BC020008BC020008BC020008BC020008C6
:1002200008B5FFF773FF00BEFEE71EF0040F0CBF1A
:10023000EFF30880EFF309807146124A104700BEC1
:10024000FEE700BEFEE71EF0040F0CBFEFF30880D0
:10025000EFF3098071460C4A104700BEFEE71EF01E
:10026000040F0CBFEFF30880EFF309807146074AD3
:10027000104700BEFEE700BEFEE700BEFEE700BE80
:10028000FEE770473F0200085B02000873020008A7
:0402900000BEFEE7C7
:100294008807000800000020C40000208807000828
:1002A4000000000000000000C4000020D000002076
:0802B400000000000000000042
:1002BC00FEE7000001230360014B0B60704700BF99
:1002CC000400002008B500F073F8024A024B9A6053
:1002DC0008BD00BF0000000800ED00E008B500F00C
:1002EC008FF808BD82B00023019300932C4A136849
:1002FC0043F4803313602A4B1B6803F400330093E0
:10030C00019B01330193009B1BB9019BB3F5A06FBB
:10031C00F1D1234B1B6813F4003F06D0012300934B
:10032C00009B012B04D002B0704700230093F7E729
:10033C001C4B1A6842F010021A601A6822F0030271
:10034C001A601A6842F002021A60A3F580535A68C8
:10035C005A605A685A605A6842F480625A605A6805
:10036C0022F47C125A605A6842F4E8125A601A68F5
:10037C0042F080721A600A4B1B6813F0007FFAD0AF
:10038C00074B5A6822F003025A605A6842F0020284
:10039C005A60034B5B6803F00C03082BF9D1C2E7DE
:1003AC00001002400020024008B5FFF79BFF08BD7B
:1003BC0008B5104B1A6842F001021A6059680E4ACF
:1003CC000A405A601A6822F0847222F480321A6051
:1003DC001A6822F480221A605A6822F4FE025A60CB
:1003EC004FF41F029A60FFF7DFFF044B4FF00062DF
:1003FC009A6008BD001002400000FFF800ED00E01C
:10040C001F4B5B6803F00C03042B15D0082B17D083
:10041C001BB11C4B1C4A1A6002E01A4B1A4A1A6098
:10042C00174B5B68C3F30313184AD35CDAB2154954
:10043C000B68D3400B607047124B134A1A60EFE7FE
:10044C000F4A53685268C3F38343023312F4803F5C
:10045C000AD00B4A526812F4003F0BD00C4A02FB34
:10046C0003F3084A1360DBE7094A02FB03F3054A6E
:10047C001360D5E7044A02FB03F3024A1360CFE78B
:10048C00001002401C00002000127A000C0000201A
:10049C0000093D0008B5012909D0184B98421ED01F
:1004AC00174B984220D0174B984222D008BD134BC3
:1004BC0098420AD0124B98420CD0124B9842F5D16C
:1004CC000421022000F0DAF8F0E70221084600F0DF
:1004DC00D5F8EBE70321022000F0D0F8E6E7022183
:1004EC00084600F0F1F8E1E70321022000F0ECF8F7
:1004FC00DCE70421022000F0E7F8D7E70008014010
:10050C00000C014000100140012A04D0012303FA21
:10051C0001F141617047012303FA01F10161704758
:10052C0070B50446057B066901210068FFF7B2FF30
:10053C0025B1012D04D123685E6001E023681E60A3
:10054C0070BD11B1012908D07047C36823F0FF03B7
:10055C00C360C3681A43C2607047C36823F47F4307
:10056C00C360C36843EA0222C260EDE708B5FF220C
:10057C0001210248FFF7E5FF08BD00BF000C014058
:10058C0008B5024600210248FFF7DBFF08BD00BF9B
:10059C000008014010B58AB00A4B059300238DF872
:1005AC0020304FF02234099405A8FFF7B9FF064B11
:1005BC00009301238DF80C3004946846FFF7B0FFCC
:1005CC000AB010BD00080140000C014038B50546CA
:1005DC00002411E0FFF7CAFF285DFFF7D1FF04F1FB
:1005EC0008010022C9B20648FFF78EFF40F6C4107E
:1005FC0000F0A4F80134E4B2072CEBD938BD00BFED
:10060C00000C014038B500252BE0184800EBC50064
:10061C00FFF7DCFF0134E4B21D2CF6D9002406E010
:10062C00134800EBC500FFF7D1FF0134E4B21D2CD9
:10063C00F6D9002406E00F4800EBC500FFF7C6FF13
:10064C000134E4B21D2CF6D9002406E00A4800EB74
:10065C00C500FFF7BBFF0134E4B21D2CF6D9013500
:10066C00EDB2042D01D80024D6E738BD20000020BF
:10067C004800002070000020980000201F291CD882
:10068C0001280BD010B1022810D070470B4803681A
:10069C00012202FA01F1194301607047084803680E
:1006AC00012202FA01F11943016070470548036801
:1006BC00012202FA01F11943016070471410024043
:1006CC001C100240181002401F291FD801280CD002
:1006DC0010B1022812D070470D480368012202FAAB
:1006EC0001F123EA0101016070470A480368012205
:1006FC0002FA01F123EA0101016070470648036820
:10070C00012202FA01F123EA01010160704700BFE6
:10071C00141002401C10024018100240034B4FF4FE
:10072C0080321A60043301221A60704700100240B4
:10073C00014B00221A60704710E000E0094B586032
:10074C001A6842F001021A60064B1B6813F4803FD2
:10075C00FAD0044B1A6822F001021A6000225A6087
:10076C009A60704710E000E008B5FFF7D7FFFFF77D
:0C077C00DFFFFFF70FFFFFF745FFFCE772
:1007880078563412C8000020000000000000000065
:1007980000000000010203040607080900A24A0439
:1007A800000000007E0408047E007E42427E007E37
:1007B80010107E007C12127C007E0408047E007EED
:1007C800525252007E42241800007E0408047E0023
:1007D8007E42427E007E10107E007C12127C007EDB
:1007E8000408047E007E525252007E422418000003
:1007F800007E0408047E007E42427E007E10107E49
:10080800007C12127C007E0408047E007E52525244
:10081800007E4224180000007E0408047E007E4208
:10082800427E007E10107E007C12127C007E04083E
:10083800047E007E525252007E42241800000000BE
:040848003254769818
:040000050800010DE1
:00000001FF
