:020000040800F2
:100000000050002021020008270200082B020008EF
:1000100043020008470200085F02000800000000D9
:10002000000000000000000000000000770200084F
:100030007B020008000000007F0200088302000825
:100040009102000891020008910200089102000844
:100050009102000891020008910200089102000834
:100060009102000891020008910200089102000824
:100070009102000891020008910200089102000814
:100080009102000891020008910200089102000804
:1000900091020008910200089102000891020008F4
:1000A00091020008910200089102000891020008E4
:1000B00091020008910200089102000891020008D4
:1000C00091020008910200089102000891020008C4
:1000D00091020008910200089102000891020008B4
:1000E000910200089102000891020008000000003F
:1000F0000000000000000000000000000000000000
:1001000000000000000000005FF808F100B583B0B7
:1001100000F0DEF8304B314A1360314A1360314B46
:10012000314A32498B4204D21168196004330432D7
:10013000F7E72A4B1A682E4B9A4200D0FEE7284B6D
:100140001A682C4B9A42F9D1234B2B4A13602B4A45
:1001500013602B4B02E000221A600433294A9342B9
:10016000F9D3254B1B6813B9244B1B6803B1FEE779
:1001700000F0BAF8694601A800F0A2F8224C234B1F
:10018000E41AA4100025AC4214DC214C214BE41AE3
:10019000A4100025AC4213DC0099019800F01CFB70
:1001A00005461D4C1D4BE41AA410002C0EDC2846FD
:1001B00000F084F8154B53F8253098470135E2E7F5
:1001C000144B53F8253098470135E3E7013C134BB6
:1001D00053F824309847E8E7BABADECA0000002096
:1001E00020000020000000201C080008240000203F
:1001F0007856341232547698240000202C000020C7
:100200002400002030000020BC020008BC020008CE
:10021000BC020008BC020008BC020008BC020008C6
:1002200008B5FFF773FF00BEFEE71EF0040F0CBF1A
:10023000EFF30880EFF309807146124A104700BEC1
:10024000FEE700BEFEE71EF0040F0CBFEFF30880D0
:10025000EFF3098071460C4A104700BEFEE71EF01E
:10026000040F0CBFEFF30880EFF309807146074AD3
:10027000104700BEFEE700BEFEE700BEFEE700BE80
:10028000FEE770473F0200085B02000873020008A7
:0402900000BEFEE7C7
:100294001C08000800000020240000201C0800089E
:1002A40000000000000000002400002030000020B6
:0802B400000000000000000042
:1002BC00FEE7000001230360014B0B60704700BF99
:1002CC000400002008B500F073F8024A024B9A6053
:1002DC0008BD00BF0000000800ED00E008B500F00C
:1002EC008FF808BD82B00023019300932C4A136849
:1002FC0043F4803313602A4B1B6803F400330093E0
:10030C00019B01330193009B1BB9019BB3F5A06FBB
:10031C00F1D1234B1B6813F4003F06D0012300934B
:10032C00009B012B04D002B0704700230093F7E729
:10033C001C4B1A6842F010021A601A6822F0030271
:10034C001A601A6842F002021A60A3F580535A68C8
:10035C005A605A685A605A6842F480625A605A6805
:10036C0022F47C125A605A6842F4E8125A601A68F5
:10037C0042F080721A600A4B1B6813F0007FFAD0AF
:10038C00074B5A6822F003025A605A6842F0020284
:10039C005A60034B5B6803F00C03082BF9D1C2E7DE
:1003AC00001002400020024008B5FFF79BFF08BD7B
:1003BC0008B5104B1A6842F001021A6059680E4ACF
:1003CC000A405A601A6822F0847222F480321A6051
:1003DC001A6822F480221A605A6822F4FE025A60CB
:1003EC004FF41F029A60FFF7DFFF044B4FF00062DF
:1003FC009A6008BD001002400000FFF800ED00E01C
:10040C001F4B5B6803F00C03042B15D0082B17D083
:10041C001BB11C4B1C4A1A6002E01A4B1A4A1A6098
:10042C00174B5B68C3F30313184AD35CDAB2154954
:10043C000B68D3400B607047124B134A1A60EFE7FE
:10044C000F4A53685268C3F38343023312F4803F5C
:10045C000AD00B4A526812F4003F0BD00C4A02FB34
:10046C0003F3084A1360DBE7094A02FB03F3054A6E
:10047C001360D5E7044A02FB03F3024A1360CFE78B
:10048C00001002401C00002000127A000C0000201A
:10049C0000093D0008B5012909D0184B98421ED01F
:1004AC00174B984220D0174B984222D008BD134BC3
:1004BC0098420AD0124B98420CD0124B9842F5D16C
:1004CC000421022000F05EF8F0E70221084600F05B
:1004DC0059F8EBE70321022000F054F8E6E702217B
:1004EC00084600F075F8E1E70321022000F070F8EF
:1004FC00DCE70421022000F06BF8D7E7000801408C
:10050C00000C01400010014070B505460479467995
:10051C0001210068FFF7BEFFA6F10903DBB2022B35
:10052C0012D9072C15D9083CE4B229684B68A400F1
:10053C000F22A24023EA02034B602A68536806FA92
:10054C0004F41C43546070BD0021022000F01AF822
:10055C00E7E729680B68A4000F22A24023EA0203F4
:10056C000B602A68136806FA04F41C431460EAE76B
:10057C00034B4FF480321A60043301221A60704727
:10058C00001002401F291CD801280BD010B10228E2
:10059C0010D070470B480368012202FA01F119438D
:1005AC000160704708480368012202FA01F11943FF
:1005BC000160704705480368012202FA01F11943F2
:1005CC0001607047141002401C10024018100240C9
:1005DC001F291FD801280CD010B1022812D0704747
:1005EC000D480368012202FA01F123EA01010160BE
:1005FC0070470A480368012202FA01F123EA01015B
:10060C000160704706480368012202FA01F123EAEF
:10061C0001010160704700BF141002401C10024021
:10062C001810024000B587B0094B019309238DF8CF
:10063C00093005238DF8083001A8FFF765FF072363
:10064C008DF8083001A8FFF75FFF07B05DF804FBD9
:10065C0000080140012904D0036823F04003036023
:10066C007047036843F040030360704708B50129E5
:10067C000AD041B9184B98421ED0184B984220D042
:10068C00174B984222D008BD134B98420AD0134BFB
:10069C0098420CD0124B9842F5D10F210120FFF754
:1006AC0071FFF0E70C210220FFF76CFFEBE70E2146
:1006BC000120FFF767FFE6E70C210220FFF788FF18
:1006CC00E1E70E210120FFF783FFDCE70F2101207A
:1006DC00FFF77EFFD7E700BF003001400038004035
:1006EC00003C004010B5044601210068FFF7BEFF36
:1006FC0023799B006279012A08D0022A20D0032A90
:10070C0006D123F4004343F4806301E023F4004357
:10071C00A27943EAC203E27943EAC223227A43EA8A
:10072C004203627A1343A27A43EA4223E27A43EA0F
:10073C0002232268136001212068FFF78BFF10BD94
:10074C0043F40043E4E7000000B587B0FFF76AFF0D
:10075C000C4B009301238DF805308DF804300022EA
:10076C008DF806208DF807208DF808308DF80930AB
:10077C008DF80A308DF80B306846FFF7B3FF07B0E1
:10078C005DF804FB0030014083680B4201D100206E
:10079C0070470120704770B504460E46154603E0BD
:1007AC0016F8013BE360013D75B102212046FFF7CD
:1007BC00EBFF0028F9D0236813F4006FF0D036F863
:1007CC00013BE360023DEFE770BD000010B582B065
:1007DC0031238DF80730FFF7CBFEFFF7B5FF0B4C3D
:1007EC0001212046FFF736FF01220DF107012046BB
:1007FC00FFF7D1FF80210548FFF7C6FF0028F9D18C
:10080C0000210248FFF726FFE9E700BF0030014056
:10081C007856341228000020000000000000000070
:10082C0000000000010203040607080900A24A04A4
:04083C003254769824
:040000050800010DE1
:00000001FF
