:020000040800F2
:100000000050002021020008270200082B020008EF
:1000100043020008470200085F02000800000000D9
:10002000000000000000000000000000770200084F
:100030007B020008000000007F0200088302000825
:100040009102000891020008910200089102000844
:100050009102000891020008910200089102000834
:100060009102000891020008910200089102000824
:100070009102000891020008910200089102000814
:100080009102000891020008910200089102000804
:1000900091020008910200089102000891020008F4
:1000A00091020008910200089102000891020008E4
:1000B00091020008910200089102000891020008D4
:1000C00091020008910200089102000891020008C4
:1000D00091020008910200089102000891020008B4
:1000E000910200089102000891020008000000003F
:1000F0000000000000000000000000000000000000
:1001000000000000000000005FF808F100B583B0B7
:1001100000F0DEF8304B314A1360314A1360314B46
:10012000314A32498B4204D21168196004330432D7
:10013000F7E72A4B1A682E4B9A4200D0FEE7284B6D
:100140001A682C4B9A42F9D1234B2B4A13602B4A45
:1001500013602B4B02E000221A600433294A9342B9
:10016000F9D3254B1B6813B9244B1B6803B1FEE779
:1001700000F0BAF8694601A800F0A2F8224C234B1F
:10018000E41AA4100025AC4214DC214C214BE41AE3
:10019000A4100025AC4213DC0099019800F0C2FBCA
:1001A00005461D4C1D4BE41AA410002C0EDC2846FD
:1001B00000F084F8154B53F8253098470135E2E7F5
:1001C000144B53F8253098470135E3E7013C134BB6
:1001D00053F824309847E8E7BABADECA0000002096
:1001E0002000002000000020BC0D0008240000209A
:1001F00078563412325476982400002050000020A3
:100200002400002054000020BC020008BC020008AA
:10021000BC020008BC020008BC020008BC020008C6
:1002200008B5FFF773FF00BEFEE71EF0040F0CBF1A
:10023000EFF30880EFF309807146124A104700BEC1
:10024000FEE700BEFEE71EF0040F0CBFEFF30880D0
:10025000EFF3098071460C4A104700BEFEE71EF01E
:10026000040F0CBFEFF30880EFF309807146074AD3
:10027000104700BEFEE700BEFEE700BEFEE700BE80
:10028000FEE770473F0200085B02000873020008A7
:0402900000BEFEE7C7
:10029400BC0D00080000002024000020BC0D000854
:1002A4000000000000000000240000205400002092
:0802B400000000000000000042
:1002BC00FEE7000001230360014B0B60704700BF99
:1002CC000400002008B500F073F8024A024B9A6053
:1002DC0008BD00BF0000000800ED00E008B500F00C
:1002EC008FF808BD82B00023019300932C4A136849
:1002FC0043F4803313602A4B1B6803F400330093E0
:10030C00019B01330193009B1BB9019BB3F5A06FBB
:10031C00F1D1234B1B6813F4003F06D0012300934B
:10032C00009B012B04D002B0704700230093F7E729
:10033C001C4B1A6842F010021A601A6822F0030271
:10034C001A601A6842F002021A60A3F580535A68C8
:10035C005A605A685A605A6842F480625A605A6805
:10036C0022F47C125A605A6842F4E8125A601A68F5
:10037C0042F080721A600A4B1B6813F0007FFAD0AF
:10038C00074B5A6822F003025A605A6842F0020284
:10039C005A60034B5B6803F00C03082BF9D1C2E7DE
:1003AC00001002400020024008B5FFF79BFF08BD7B
:1003BC0008B5104B1A6842F001021A6059680E4ACF
:1003CC000A405A601A6822F0847222F480321A6051
:1003DC001A6822F480221A605A6822F4FE025A60CB
:1003EC004FF41F029A60FFF7DFFF044B4FF00062DF
:1003FC009A6008BD001002400000FFF800ED00E01C
:10040C001F4B5B6803F00C03042B15D0082B17D083
:10041C001BB11C4B1C4A1A6002E01A4B1A4A1A6098
:10042C00174B5B68C3F30313184AD35CDAB2154954
:10043C000B68D3400B607047124B134A1A60EFE7FE
:10044C000F4A53685268C3F38343023312F4803F5C
:10045C000AD00B4A526812F4003F0BD00C4A02FB34
:10046C0003F3084A1360DBE7094A02FB03F3054A6E
:10047C001360D5E7044A02FB03F3024A1360CFE78B
:10048C00001002401C00002000127A000C0000201A
:10049C0000093D0008B5012909D0184B98421ED01F
:1004AC00174B984220D0174B984222D008BD134BC3
:1004BC0098420AD0124B98420CD0124B9842F5D16C
:1004CC000421022000F060F8F0E70221084600F059
:1004DC005BF8EBE70321022000F056F8E6E7022177
:1004EC00084600F077F8E1E70321022000F072F8EB
:1004FC00DCE70421022000F06DF8D7E7000801408A
:10050C00000C01400010014070B505460479467995
:10051C0001210068FFF7BEFF072C10D9083CE4B29C
:10052C0029684B68A4000F22A24023EA02034B6007
:10053C002A68536806FA04F41C43546070BD296899
:10054C000B68A4000F22A24023EA02030B602A6866
:10055C00136806FA04F41C431460EFE7012A04D074
:10056C00012303FA01F141617047012303FA01F100
:10057C0001617047034B4FF480321A60043301223F
:10058C001A607047001002401F291CD801280BD09C
:10059C0010B1022810D070470B480368012202FAF0
:1005AC0001F119430160704708480368012202FAFF
:1005BC0001F119430160704705480368012202FAF2
:1005CC0001F1194301607047141002401C100240E5
:1005DC00181002401F291FD801280CD010B1022876
:1005EC0012D070470D480368012202FA01F123EA88
:1005FC000101016070470A480368012202FA01F107
:10060C0023EA01010160704706480368012202FADF
:10061C0001F123EA01010160704700BF1410024090
:10062C001C1002401810024010B58AB00A4C0594F8
:10063C0009238DF818308DF8193005A8FFF764FFE1
:10064C0000940A238DF8043004238DF80530684695
:10065C00FFF75AFF0AB010BD0008014008B5012988
:10066C0010D071B9284B984234D0284B984236D0D0
:10067C00274B984238D0274B98423AD0264B984279
:10068C003CD008BD204B984210D0204B984212D041
:10069C001F4B984214D01F4B984216D01E4B9842B9
:1006AC00EFD114210120FFF76FFFEAE70E210220A2
:1006BC00FFF76AFFE5E711210120FFF765FFE0E78F
:1006CC0012210120FFF760FFDBE713210120FFF768
:1006DC005BFFD6E70E210220FFF77CFFD1E711214B
:1006EC000120FFF777FFCCE712210120FFF772FF03
:1006FC00C7E713210120FFF76DFFC2E7142101208A
:10070C00FFF768FFBDE700BF003801400044004020
:10071C0000480040004C0040005000400368194263
:10072C0001D10020704701207047F8B504460E46F1
:10073C001746002508E033882268C3F3080353608A
:10074C00E37A8BB902360135BD420FD28021206885
:10075C00FFF7E4FF0028F9D0A37A012BEBD016F8B1
:10076C00012B23685A60EEE70136ECE74021206844
:10077C00FFF7D4FF0028F9D0F8BDF8B504460E46B3
:10078C001746002514E0E37A33B923685B68C3F39A
:10079C00080326F8023B0AE023685B6806F8013B75
:1007AC0005E023685B6803F07F0333700136013585
:1007BC00BD420FD220212068FFF7B0FF0028F9D0EE
:1007CC00A37A012BDFD0E37A002BEAD123685B6894
:1007DC003370EBE7F8BD012904D0C36823F4005350
:1007EC00C3607047C36843F40053C3607047000094
:1007FC0010B5044601210068FFF730FF237A012B66
:10080C0004D033B3022B26D0002300E00423A27AB9
:10081C0043EA0233E27A012A1FD0022A20D022684E
:10082C00D36022681369617A43EA01331361237B35
:10083C00012B18D0022B24D0032B19D12268536919
:10084C0043F4007353612268536943F4807353611A
:10085C000EE00823DBE70C23D9E743F48063DEE7E3
:10086C0043F4C063DBE72268536943F400735361BC
:10087C006368B3F5165F0AD001212068FFF7ABFF60
:10088C0010BD2268536943F480735361F0E7024B47
:10089C0040F241329A60EFE70038014008B5FFF7AB
:1008AC00C3FE0848084B03604FF416534360002303
:1008BC0003730222027243728372C372FFF798FFB2
:1008CC0008BD00BF2C0000200038014000B587B0E7
:1008DC00064B019300238DF8083002238DF8093064
:1008EC0001A8FFF711FE07B05DF804FB00080140FA
:1008FC0008B5012200210248FFF730FE08BD00BFF9
:10090C000008014008B5002211460248FFF726FEF8
:10091C0008BD00BF0008014000B5ADF20C4D02ACA3
:10092C00194D0FCD0FC495E8030044F8040B21704A
:10093C0040F2EB3200210DF11D0000F029F80023EC
:10094C008DF80430FFF716FEFFF7C0FFFFF7A6FF88
:10095C0002A800F025F8024602A90C48FFF7E5FEB4
:10096C0003E09DF80430302B0BD0012201A907487D
:10097C00FFF703FF9DF80430312BF2D1FFF7B8FFDE
:10098C00EFE7FFF7BFFFF0E7BC0900082C000020E1
:10099C0003460244934200D1704703F8011BF9E768
:1009AC00034613F8012B002AFBD1181A01387047A3
:1009BC00554152542054782074657374696E672EB7
:1009CC002E2E0A0D000000000000000000000000A8
:1009DC00000000000000000000000000000000000B
:1009EC0000000000000000000000000000000000FB
:1009FC0000000000000000000000000000000000EB
:100A0C0000000000000000000000000000000000DA
:100DBC0078563412280000200000000000000000CB
:100DCC0000000000010203040607080900A24A04FF
:040DDC00325476987F
:040000050800010DE1
:00000001FF
