:020000040800F2
:100000000050002021020008270200082B020008EF
:1000100043020008470200085F02000800000000D9
:10002000000000000000000000000000770200084F
:100030007B020008000000007F0200088302000825
:100040009102000891020008910200089102000844
:100050009102000891020008910200089102000834
:100060009102000891020008910200089102000824
:100070009102000891020008910200089102000814
:100080009102000891020008910200089102000804
:1000900091020008910200089102000891020008F4
:1000A00091020008910200089102000891020008E4
:1000B00091020008910200089102000891020008D4
:1000C00091020008910200089102000891020008C4
:1000D00091020008910200089102000891020008B4
:1000E000910200089102000891020008000000003F
:1000F0000000000000000000000000000000000000
:1001000000000000000000005FF808F100B583B0B7
:1001100000F000F9304B314A1360314A1360314B23
:10012000314A32498B4204D21168196004330432D7
:10013000F7E72A4B1A682E4B9A4200D0FEE7284B6D
:100140001A682C4B9A42F9D1234B2B4A13602B4A45
:1001500013602B4B02E000221A600433294A9342B9
:10016000F9D3254B1B6813B9244B1B6803B1FEE779
:1001700000F0DCF8694601A800F0C4F8224C234BDB
:10018000E41AA4100025AC4214DC214C214BE41AE3
:10019000A4100025AC4213DC0099019800F046FC45
:1001A00005461D4C1D4BE41AA410002C0EDC2846FD
:1001B00000F084F8154B53F8253098470135E2E7F5
:1001C000144B53F8253098470135E3E7013C134BB6
:1001D00053F824309847E8E7BABADECA0000002096
:1001E0009000002000000020CC13000894000020A4
:1001F0007856341232547698940000201001002072
:100200009400002014010020BC020008BC02000879
:10021000BC020008BC020008BC020008BC020008C6
:1002200008B5FFF773FF00BEFEE71EF0040F0CBF1A
:10023000EFF30880EFF309807146124A104700BEC1
:10024000FEE700BEFEE71EF0040F0CBFEFF30880D0
:10025000EFF3098071460C4A104700BEFEE71EF01E
:10026000040F0CBFEFF30880EFF309807146074AD3
:10027000104700BEFEE700BEFEE700BEFEE700BE80
:10028000FEE770473F0200085B02000873020008A7
:0402900000BEFEE7C7
:10029400CC1300080000002094000020CC130008B8
:1002A4000000000000000000940000201401002061
:0802B400000000000000000042
:1002BC00FEE7000008B503460C4A12685AB10B4A17
:1002CC001068033323F003030344094A934206D80E
:1002DC00064A136008BD054A06491160EFE700F0B5
:1002EC00D1FB0C2303604FF0FF30F3E798000020A4
:1002FC00004C00201401002001230360014B0B6013
:10030C00704700BF0400002008B500F073F8024AE3
:10031C00024B9A6008BD00BF0000000800ED00E031
:10032C0008B500F08FF808BD82B00023019300934C
:10033C002C4A136843F4803313602A4B1B6803F474
:10034C0000330093019B01330193009B1BB9019B6C
:10035C00B3F5A06FF1D1234B1B6813F4003F06D00B
:10036C0001230093009B012B04D002B070470023A3
:10037C000093F7E71C4B1A6842F010021A601A68D7
:10038C0022F003021A601A6842F002021A60A3F506
:10039C0080535A685A605A685A605A6842F48062AC
:1003AC005A605A6822F47C125A605A6842F4E81275
:1003BC005A601A6842F080721A600A4B1B6813F07C
:1003CC00007FFAD0074B5A6822F003025A605A6831
:1003DC0042F002025A60034B5B6803F00C03082BDB
:1003EC00F9D1C2E7001002400020024008B5FFF727
:1003FC009BFF08BD08B5104B1A6842F001021A6049
:10040C0059680E4A0A405A601A6822F0847222F423
:10041C0080321A601A6822F480221A605A6822F418
:10042C00FE025A604FF41F029A60FFF7DFFF044B85
:10043C004FF000629A6008BD001002400000FFF807
:10044C0000ED00E01F4B5B6803F00C03042B15D090
:10045C00082B17D01BB11C4B1C4A1A6002E01A4B1C
:10046C001A4A1A60174B5B68C3F30313184AD35C20
:10047C00DAB215490B68D3400B607047124B134A24
:10048C001A60EFE70F4A53685268C3F38343023391
:10049C0012F4803F0AD00B4A526812F4003F0BD082
:1004AC000C4A02FB03F3084A1360DBE7094A02FB20
:1004BC0003F3054A1360D5E7044A02FB03F3024A2F
:1004CC001360CFE7001002401C00002000127A00DD
:1004DC000C00002000093D0038B50546002304E05F
:1004EC00154A0021D1540133DBB2632BF8D900201B
:1004FC00044606E0284600F057FA0F4B1855013415
:10050C00E4B2FF28F6D12546013C00200A4B1855D1
:10051C00034601E00133DBB21946AA1E93420ADA04
:10052C00054AD25C4F2AF5D10131034A525C4B2A61
:10053C00F0D10120EEE738BDA000002008B5002066
:10054C0005E0094800F01EFA6420FFF7C5FF0028FB
:10055C00F7D0002005E0054800F014FA9620FFF7CC
:10056C00BBFF0028F7D008BD2C130008341300087B
:10057C0070B58EB006460D461A4901A800F0B7FAC0
:10058C00194901A800F0A4FA184C214601A800F062
:10059C009FFA314601A800F09BFA214601A800F011
:1005AC0097FA134901A800F093FA214601A800F02C
:1005BC008FFA294601A800F08BFA214601A800F019
:1005CC0087FA0C4901A800F083FA002005E001A885
:1005DC0000F0D8F90848FFF77FFF0028F7D00EB0DD
:1005EC0070BD00BF4C1300080C130008280000203D
:1005FC002400002020000020E0C81000F0B58DB0D1
:10060C0005460F4616461F4901A800F070FA1E4910
:10061C0001A800F05DFA1D4C214601A800F058FA23
:10062C00294601A800F054FA214601A800F050FA1E
:10063C00174D294601A800F04BFA214601A800F0FD
:10064C0047FA394601A800F043FA214601A800F008
:10065C003FFA294601A800F03BFA314601A800F008
:10066C0037FA0C4901A800F033FA002005E001A884
:10067C0000F088F90848FFF72FFF0028F7D00DB0DD
:10068C00F0BD00BF4C1300081C130008280000200C
:10069C002400002020000020E0930400B0B586B0B8
:1006AC0000AF054600F02BFA00F10C0323F0070312
:1006BC00ADEB030D6C46294907F1080000F017FA61
:1006CC00284600F01CFA421D2549381D00F0E0F9BF
:1006DC00391D07F1080000F0FBF9224907F1080069
:1006EC0000F0F6F9002006E007F1080000F04AF9E6
:1006FC00C820FFF7F1FE0028F6D01B49204600F079
:10070C00F6F92946204600F0E3F91649204600F098
:10071C00DFF9002005E0204600F034F91348FFF71C
:10072C00DBFE0028F7D00023184601E00133DBB2D2
:10073C00612B10D819460E4AD25C492AF6D15A1CA4
:10074C000B4CA25C502AF1D19A1CA25C442AEDD12C
:10075C000631605CEAE71837BD46B0BDFC120008F4
:10076C0008130008200000204C130008A0BB0D004B
:10077C00A000002008B5012909D0184B98421ED0C2
:10078C00174B984220D0174B984222D008BD134BE0
:10079C0098420AD0124B98420CD0124B9842F5D189
:1007AC000421022000F060F8F0E70221084600F076
:1007BC005BF8EBE70321022000F056F8E6E7022194
:1007CC00084600F077F8E1E70321022000F072F808
:1007DC00DCE70421022000F06DF8D7E700080140A7
:1007EC00000C01400010014070B5054604794679B3
:1007FC0001210068FFF7BEFF072C10D9083CE4B2BA
:10080C0029684B68A4000F22A24023EA02034B6024
:10081C002A68536806FA04F41C43546070BD2968B6
:10082C000B68A4000F22A24023EA02030B602A6883
:10083C00136806FA04F41C431460EFE7012A04D091
:10084C00012303FA01F141617047012303FA01F11D
:10085C0001617047034B4FF480321A60043301225C
:10086C001A607047001002401F291CD801280BD0B9
:10087C0010B1022810D070470B480368012202FA0D
:10088C0001F119430160704708480368012202FA1C
:10089C0001F119430160704705480368012202FA0F
:1008AC0001F1194301607047141002401C10024002
:1008BC00181002401F291FD801280CD010B1022893
:1008CC0012D070470D480368012202FA01F123EAA5
:1008DC000101016070470A480368012202FA01F124
:1008EC0023EA01010160704706480368012202FAFD
:1008FC0001F123EA01010160704700BF14100240AE
:10090C001C1002401810024010B58AB00A4C059415
:10091C0009238DF818308DF8193005A8FFF764FFFE
:10092C0000940A238DF8043004238DF805306846B2
:10093C00FFF75AFF0AB010BD0008014008B5FFF7D9
:10094C00E3FF0E210220FFF78FFF0D4B45229A602B
:10095C00DA6822F48052DA60DA6822F48062DA60B3
:10096C00DA6842F00402DA60DA6842F00802DA600F
:10097C00DA6842F40052DA6000221A6008BD00BF47
:10098C0000380140002208E006494B60054B1B680B
:10099C0013F0400FFAD00132D2B28356002BF3D1B0
:1009AC00704700BF003801400023094A126812F05A
:1009BC00200F05D101338342F7D14FF0FF3000E017
:1009CC00002010B9024B586840B2C0B2704700BF4B
:1009DC000038014000B587B0064B019300238DF819
:1009EC00083002238DF8093001A8FFF7FDFE07B08F
:1009FC005DF804FB0008014008B501220021024803
:100A0C00FFF71CFF08BD00BF0008014008B500221D
:100A1C0011460248FFF712FF08BD00BF0008014055
:100A2C0008B5FFF717FFFFF7D5FFFFF787FFFFF7B5
:100A3C0085FD0E490E48FFF79BFD01E0FFF7E6FF31
:100A4C00FFF77CFD09490A48FFF792FD094A0A495C
:100A5C000A48FFF7D3FD0A48FFF720FE3028EDD0F7
:100A6C003128EDD1FFF7C8FFEAE700BF44130008B7
:100A7C0050130008581300085C1300086C1300088E
:100A8C0070130008014B1868704700BF2C00002041
:100A9C000EB46FF0004100B59CB01DAB02900690F7
:100AAC00079104910848094953F8042B05910068F3
:100ABC0002A9019300F086F80022029B1A701CB068
:100ACC005DF804EB03B070472C0000200802FFFF18
:100ADC00034610B51A785C1C3AB9013B11F8012B8E
:100AEC0003F8012F002AF9D110BD2346F2E7034683
:100AFC0011F8012B03F8012B002AF9D1704703469A
:100B0C0013F8012B002AFBD1181A013870472DE974
:100B1C00F0478E6882469E420C469046994637D8DE
:100B2C008A8912F4906F31D00223256809696F1AF3
:100B3C00656905EB450595FBF3F509F101033B44AC
:100B4C009D4238BF1D46530530D5294600F036FB73
:100B5C00064650B90C234FF0FF30CAF80030A38979
:100B6C0043F04003A381BDE8F0873A46216900F0C9
:100B7C00B5FAA38923F4906343F08003A381266123
:100B8C003E4426604E466561ED1BA5604E4500D97E
:100B9C004E4632464146206800F0ABFAA36800206E
:100BAC009B1BA36023681E442660DCE72A4600F0EA
:100BBC005FFB06460028E2D12169504600F0B2FAEC
:100BCC00C8E700002DE9F04F9DB003938B89804658
:100BDC001D060C4616460FD50B696BB9402100F06B
:100BEC00EDFA2060206128B90C23C8F800304FF0D2
:100BFC00FF30C7E0402363610023099320238DF865
:100C0C00293030234FF0010B8DF82A3037463D4602
:100C1C0015F8013B0BB1252B3ED1B7EB060A0BD0D7
:100C2C005346324621464046FFF771FF013000F033
:100C3C00A480099B534409933B78002B00F09D80C2
:100C4C0000234FF0FF32CDE90523049307938DF871
:100C5C0053301A932F46052217F8011B4F4800F00A
:100C6C002FFA049BD0B9D90644BF20228DF853200B
:100C7C001A0744BF2B228DF853202A782A2A15D024
:100C8C002F4600200A25079A394611F8013B303BC4
:100C9C00092B4DD9B8B10FE02F46B8E73F4A3D4676
:100CAC00801A0BFA00F018430490D3E7039A111D35
:100CBC0012680391002A01DB079204E0524243F0D0
:100CCC000203079204933B782E2B0CD17B782A2BB2
:100CDC0033D1039B02371A1D1B680392002BB8BF3C
:100CEC004FF0FF3305932E4D03223978284600F040
:100CFC00E7F938B14023401B03FA00F0049B01379D
:100D0C00034304933978062226487E1C8DF828105C
:100D1C0000F0D6F9002838D0234B13BB039B0733C4
:100D2C0023F0070308330393099B4B4409936DE7A6
:100D3C0005FB023201200F46A6E700230A251946BF
:100D4C0001370593384610F8012B303A092A03D99C
:100D5C00002BC8D00591C6E705FB012101230746EE
:100D6C00F0E703AB00932246104B04A94046AFF3C7
:100D7C000080B0F1FF3F8146D6D1A3895B063FF5D9
:100D8C0036AF09981DB0BDE8F08F03AB0093224637
:100D9C00064B04A9404600F081F8EAE798130008D6
:100DAC009E130008A2130008000000001B0B000893
:100DBC002DE9F04791461F468A680B690646934217
:100DCC00B8BF1346C9F8003091F843200C46DDF843
:100DDC00208012B10133C9F800302368990642BF54
:100DEC00D9F800300233C9F80030256815F0060533
:100DFC0007D104F1190AE368D9F800209B1AAB4219
:100E0C0029DC94F843302268003318BF0123920682
:100E1C002ED404F1430239463046C047013021D06C
:100E2C002368E56803F00603042B18BF0025D9F8E6
:100E3C0000204FF0000908BFAD1AA368226908BF53
:100E4C0025EAE5759342C4BF9B1AED181A344D453B
:100E5C001AD1002008E00123524639463046C047DB
:100E6C00013003D14FF0FF30BDE8F0870135C2E708
:100E7C003020E11881F843005A1C94F845102244A4
:100E8C00023382F84310C4E7012322463946304628
:100E9C00C0470130E6D009F10109D8E72DE9F0434C
:100EAC0001F1430C0C46097E85B06E2917460646A7
:100EBC0098460C9A00F0B38022D8632936D00AD811
:100ECC00002900F0B980582900F0838004F1420514
:100EDC0084F8421032E0642901D06929F6D12068E7
:100EEC001368050603F104012AD51B681160002B59
:100EFC0003DA2D225B4284F843206F480A2239E042
:100F0C00732900F09D8008D86F2920D07029DDD17D
:100F1C00236843F02003236003E0752917D0782958
:100F2C00D4D17823654884F8453055E0136804F132
:100F3C004205191D1B68116084F8423001238CE0B6
:100F4C001B6810F0400F116018BF1BB2CFE713687D
:100F5C002568181D1060280601D51B6802E068067C
:100F6C00FBD51B886F2914BF0A2208225248002186
:100F7C0084F843106568002DA560C0F29580216847
:100F8C0021F004012160002B3DD1002D40F08E801A
:100F9C006546082A0BD12368DB0708D523696268EC
:100FAC009A42DEBF302305F8013C05F1FF35ACEB6E
:100FBC0005032361CDF800803B4603AA2146304649
:100FCC00FFF7F6FE01304DD14FF0FF3005B0BDE814
:100FDC00F083394884F84510136821681D1D1B687F
:100FEC0015600A060BD5CA0744BF41F020012160E9
:100FFC001BB9226822F0200222601022B7E74D06AE
:10100C0048BF9BB2EFE76546B3FBF2F102FB11332D
:10101C00C35C05F8013D0B460029F5D1B9E713680F
:10102C002568181D6169106028061B6801D51960B8
:10103C0002E06A06FBD51980002365462361B9E7F7
:10104C001368191D11601D6862680021284600F0A4
:10105C0037F808B1401B606063682361002384F893
:10106C004330A7E723692A4639463046C04701304A
:10107C00AAD023689B0713D4E068039B9842B8BF9F
:10108C001846A3E701234A4639463046C04701308B
:10109C009AD00135E368039A9B1AAB42F2DCEBE77A
:1010AC00002504F11909F5E7002BACD1037804F104
:1010BC00420584F842306CE7A9130008BA13000803
:1010CC0010B5C9B202449042034601D1002303E09B
:1010DC001C7801308C42F6D1184610BD10B5431E59
:1010EC000A44914200D110BD11F8014B03F8014F95
:1010FC00F7E7884210B501EB020307D8421E99426C
:10110C000AD011F8014B02F8014FF8E78342F5D9E8
:10111C008118D21AD34200D110BD13F8014D01F839
:10112C00014DF7E738B50546002943D051F8043C8A
:10113C000C1F002BB8BFE41800F0D0F81E4A13683F
:10114C00104633B9636014602846BDE8384000F09F
:10115C00C6B8A3420BD921686218934201BF1A6822
:10116C005B685218226063600460EDE713465A68AE
:10117C000AB1A242FAD919685818A0420BD12068BA
:10118C000144581882421960DED11068526801443B
:10119C0019605A60D8E702D90C232B60D4E7206879
:1011AC0021188A4201BF11685268091821606260D7
:1011BC005C60C9E738BD00BF0401002070B5CD1CD0
:1011CC0025F0030508350C2D38BF0C25002D0646DF
:1011DC0001DBA94203D90C233360002070BD00F061
:1011EC007DF8214A1468214691B9204C23681BB91B
:1011FC00304600F063F820602946304600F05EF877
:10120C00431C24D10C233046336000F068F8E4E72B
:10121C000B685B1B18D40B2B0FD90B60CC18CD5063
:10122C00304600F05CF804F10B00231D20F00700A1
:10123C00C31AD3D05A42E250D0E74B688C4216BF47
:10124C00636013600C46EBE70C464968CCE7C41CA2
:10125C0024F00304A04205D0211A304600F02EF8E9
:10126C000130CFD02560DBE704010020080100200D
:10127C00F8B5074614460E4621B9BDE8F8401146AC
:10128C00FFF79CBF22B9FFF74DFF25462846F8BD56
:10129C0000F026F8A0420FD221463846FFF78EFF09
:1012AC0005460028F2D031462246FFF717FF31469B
:1012BC003846FFF737FFE9E73546E7E738B500234F
:1012CC00054C054608462360FEF7F4FF431C02D18B
:1012DC00236803B12B6038BD0C01002070477047A8
:1012EC0051F8043C181F002BBCBF0B58C01870479A
:1012FC0041542B43495053454E443D002569000051
:10130C0041542B43574A41505F4355523D00000016
:10131C0041542B43495053544152543D000000005A
:10132C00415445300D0A000041542B43574D4F4456
:10133C00453D310D0A00000035353535323232323B
:10134C000000000061746F6D000000003830000078
:10135C003136322E3235332E3135352E323237008E
:10136C005443500047455420687474703A2F2F61D1
:10137C00746F6D2E6F7267667265652E636F6D2F5D
:10138C007374617475732E7478740000232D302B74
:10139C002000686C4C00656667454647003031326A
:1013AC0033343536373839414243444546003031C1
:0F13BC0032333435363738396162636465660021
:1013CC00785634129C000020000000000000000041
:1013DC0000000000010203040607080900A24A04E9
:1013EC000D0A00FF2C00FFFF2200FFFF3000002041
:1013FC0000000000000000000000000000000000E1
:10140C0000000000000000000000000000000000D0
:10141C0000000000000000000000000000000000C0
:10142C0000000000000000000000000000000000B0
:10143C0000000000000000000000000000000000A0
:10144C000000000000000000000000000000000090
:04145C0032547698F8
:040000050800010DE1
:00000001FF
