:020000040800F2
:100000000050002021020008270200082B020008EF
:1000100043020008470200085F02000800000000D9
:10002000000000000000000000000000770200084F
:100030007B020008000000007F020008650700083E
:100040009102000891020008910200089102000844
:100050009102000891020008910200089102000834
:100060009102000891020008910200089102000824
:100070009102000891020008910200089102000814
:100080009102000891020008910200089102000804
:1000900091020008910200089102000891020008F4
:1000A00091020008910200089102000891020008E4
:1000B00091020008910200089102000891020008D4
:1000C00091020008910200089102000891020008C4
:1000D00091020008910200089102000891020008B4
:1000E000910200089102000891020008000000003F
:1000F0000000000000000000000000000000000000
:1001000000000000000000005FF808F100B583B0B7
:1001100000F0DEF8304B314A1360314A1360314B46
:10012000314A32498B4204D21168196004330432D7
:10013000F7E72A4B1A682E4B9A4200D0FEE7284B6D
:100140001A682C4B9A42F9D1234B2B4A13602B4A45
:1001500013602B4B02E000221A600433294A9342B9
:10016000F9D3254B1B6813B9244B1B6803B1FEE779
:1001700000F0BAF8694601A800F0A2F8224C234B1F
:10018000E41AA4100025AC4214DC214C214BE41AE3
:10019000A4100025AC4213DC0099019800F0EAFAA3
:1001A00005461D4C1D4BE41AA410002C0EDC2846FD
:1001B00000F084F8154B53F8253098470135E2E7F5
:1001C000144B53F8253098470135E3E7013C134BB6
:1001D00053F824309847E8E7BABADECA0000002096
:1001E0002000002000000020D40700082400002088
:1001F00078563412325476982400002048000020AB
:10020000240000204C000020BC020008BC020008B2
:10021000BC020008BC020008BC020008BC020008C6
:1002200008B5FFF773FF00BEFEE71EF0040F0CBF1A
:10023000EFF30880EFF309807146124A104700BEC1
:10024000FEE700BEFEE71EF0040F0CBFEFF30880D0
:10025000EFF3098071460C4A104700BEFEE71EF01E
:10026000040F0CBFEFF30880EFF309807146074AD3
:10027000104700BEFEE700BEFEE700BEFEE700BE80
:10028000FEE770473F0200085B02000873020008A7
:0402900000BEFEE7C7
:10029400D40700080000002024000020D407000830
:1002A4000000000000000000240000204C0000209A
:0802B400000000000000000042
:1002BC00FEE7000001230360014B0B60704700BF99
:1002CC000400002008B500F073F8024A024B9A6053
:1002DC0008BD00BF0000000800ED00E008B500F00C
:1002EC008FF808BD82B00023019300932C4A136849
:1002FC0043F4803313602A4B1B6803F400330093E0
:10030C00019B01330193009B1BB9019BB3F5A06FBB
:10031C00F1D1234B1B6813F4003F06D0012300934B
:10032C00009B012B04D002B0704700230093F7E729
:10033C001C4B1A6842F010021A601A6822F0030271
:10034C001A601A6842F002021A60A3F580535A68C8
:10035C005A605A685A605A6842F480625A605A6805
:10036C0022F47C125A605A6842F4E8125A601A68F5
:10037C0042F080721A600A4B1B6813F0007FFAD0AF
:10038C00074B5A6822F003025A605A6842F0020284
:10039C005A60034B5B6803F00C03082BF9D1C2E7DE
:1003AC00001002400020024008B5FFF79BFF08BD7B
:1003BC0008B5104B1A6842F001021A6059680E4ACF
:1003CC000A405A601A6822F0847222F480321A6051
:1003DC001A6822F480221A605A6822F4FE025A60CB
:1003EC004FF41F029A60FFF7DFFF044B4FF00062DF
:1003FC009A6008BD001002400000FFF800ED00E01C
:10040C001F4B5B6803F00C03042B15D0082B17D083
:10041C001BB11C4B1C4A1A6002E01A4B1A4A1A6098
:10042C00174B5B68C3F30313184AD35CDAB2154954
:10043C000B68D3400B607047124B134A1A60EFE7FE
:10044C000F4A53685268C3F38343023312F4803F5C
:10045C000AD00B4A526812F4003F0BD00C4A02FB34
:10046C0003F3084A1360DBE7094A02FB03F3054A6E
:10047C001360D5E7044A02FB03F3024A1360CFE78B
:10048C00001002401C00002000127A000C0000201A
:10049C0000093D0008B5012909D0184B98421ED01F
:1004AC00174B984220D0174B984222D008BD134BC3
:1004BC0098420AD0124B98420CD0124B9842F5D16C
:1004CC000421022000F09EF8F0E70221084600F01B
:1004DC0099F8EBE70321022000F094F8E6E70221FB
:1004EC00084600F0B5F8E1E70321022000F0B0F86F
:1004FC00DCE70421022000F0ABF8D7E7000801404C
:10050C00000C01400010014070B505460479467995
:10051C0001210068FFF7BEFF072C0ED929684B6834
:10052C00A4000F22A24023EA02034B602A685368FE
:10053C0006FA04F41C43546070BD29680B68A400CF
:10054C000F22A24023EA02030B602A68136806FA02
:10055C0004F41C431460EFE7C368012202FA01F1B2
:10056C004B40C3607047000000B587B0064B019349
:10057C0005238DF8083001238DF8093001A8FFF709
:10058C00C3FF07B05DF804FB000C014000B587B059
:10059C00064B019306238DF8083001238DF80930A2
:1005AC0001A8FFF7B1FF07B05DF804FB000C014098
:1005BC0000B587B0064B019307238DF80830012353
:1005CC008DF8093001A8FFF79FFF07B05DF804FB19
:1005DC00000C014008B505210148FFF7BDFF08BD1F
:1005EC00000C014008B506210148FFF7B5FF08BD16
:1005FC00000C014008B507210148FFF7ADFF08BD0D
:10060C00000C01401F291CD801280BD010B1022866
:10061C0010D070470B480368012202FA01F119430C
:10062C000160704708480368012202FA01F119437E
:10063C000160704705480368012202FA01F1194371
:10064C0001607047141002401C1002401810024048
:10065C001F291FD801280CD010B1022812D07047C6
:10066C000D480368012202FA01F123EA010101603D
:10067C0070470A480368012202FA01F123EA0101DA
:10068C000160704706480368012202FA01F123EA6F
:10069C0001010160704700BF141002401C100240A1
:1006AC0018100240034B4FF480321A6004330122BD
:1006BC001A6070470010024070B5002406E00D4A25
:1006CC0002EBC402013B53800134E4B2022C0FD87C
:1006DC00084B03EBC4035B88002BF0D1054E06EBF3
:1006EC00C4056B68984736F83430013B6B80EBE7F8
:1006FC0070BD00BF3000002008B5024800F026F89D
:10070C0008BD00BFC506000810B4044C24F8301016
:10071C0004EBC0046280636010BC704730000020A2
:10072C00064B1A6822F004021A601A6842F00202A0
:10073C001A601A6842F001021A60704710E000E07B
:10074C00014B5860704700BF10E000E0014B18608F
:10075C00704700BF2C00002008B5024B1B6898475F
:10076C0008BD00BF2C00002008B5FFF79BFFFFF76A
:10077C00FBFEFFF70BFFFFF71BFFFFF7BDFF0F4B58
:10078C00002240F6B8311046FFF7BEFF0C4B4FF479
:10079C007A7240F6B8310120FFF7B6FF094B4FF4DF
:1007AC00FA6240F6B8310220FFF7AEFFFFF7B8FF50
:1007BC004FF47A70FFF7C4FFFEE700BFE1050008B5
:0807CC00F10500080106000818
:1007D40078563412280000200000000000000000B9
:1007E40000000000010203040607080900A24A04ED
:0407F400325476986D
:040000050800010DE1
:00000001FF
