:020000040800F2
:100000000050002021020008270200082B020008EF
:1000100043020008470200085F02000800000000D9
:10002000000000000000000000000000770200084F
:100030007B020008000000007F020008F5080008AD
:100040009102000891020008910200089102000844
:100050009102000891020008C504000891020008FE
:100060009102000891020008910200089102000824
:100070009102000891020008910200089102000814
:100080009102000891020008910200089102000804
:1000900091020008910200089102000891020008F4
:1000A00091020008910200089102000891020008E4
:1000B00091020008910200089102000891020008D4
:1000C00091020008910200089102000891020008C4
:1000D00091020008910200089102000891020008B4
:1000E000910200089102000891020008000000003F
:1000F0000000000000000000000000000000000000
:1001000000000000000000005FF808F100B583B0B7
:1001100000F0DEF8304B314A1360314A1360314B46
:10012000314A32498B4204D21168196004330432D7
:10013000F7E72A4B1A682E4B9A4200D0FEE7284B6D
:100140001A682C4B9A42F9D1234B2B4A13602B4A45
:1001500013602B4B02E000221A600433294A9342B9
:10016000F9D3254B1B6813B9244B1B6803B1FEE779
:1001700000F0BAF8694601A800F0A2F8224C234B1F
:10018000E41AA4100025AC4214DC214C214BE41AE3
:10019000A4100025AC4213DC0099019800F0C6FBC6
:1001A00005461D4C1D4BE41AA410002C0EDC2846FD
:1001B00000F084F8154B53F8253098470135E2E7F5
:1001C000144B53F8253098470135E3E7013C134BB6
:1001D00053F824309847E8E7BABADECA0000002096
:1001E0002000002000000020580900082400002002
:1001F00078563412325476982400002000010020F2
:100200002400002004010020BC020008BC020008F9
:10021000BC020008BC020008BC020008BC020008C6
:1002200008B5FFF773FF00BEFEE71EF0040F0CBF1A
:10023000EFF30880EFF309807146124A104700BEC1
:10024000FEE700BEFEE71EF0040F0CBFEFF30880D0
:10025000EFF3098071460C4A104700BEFEE71EF01E
:10026000040F0CBFEFF30880EFF309807146074AD3
:10027000104700BEFEE700BEFEE700BEFEE700BE80
:10028000FEE770473F0200085B02000873020008A7
:0402900000BEFEE7C7
:100294005809000800000020240000205809000824
:1002A40000000000000000002400002004010020E1
:0802B400000000000000000042
:1002BC00FEE7000001230360014B0B60704700BF99
:1002CC000400002008B500F073F8024A024B9A6053
:1002DC0008BD00BF0000000800ED00E008B500F00C
:1002EC008FF808BD82B00023019300932C4A136849
:1002FC0043F4803313602A4B1B6803F400330093E0
:10030C00019B01330193009B1BB9019BB3F5A06FBB
:10031C00F1D1234B1B6813F4003F06D0012300934B
:10032C00009B012B04D002B0704700230093F7E729
:10033C001C4B1A6842F010021A601A6822F0030271
:10034C001A601A6842F002021A60A3F580535A68C8
:10035C005A605A685A605A6842F480625A605A6805
:10036C0022F47C125A605A6842F4E8125A601A68F5
:10037C0042F080721A600A4B1B6813F0007FFAD0AF
:10038C00074B5A6822F003025A605A6842F0020284
:10039C005A60034B5B6803F00C03082BF9D1C2E7DE
:1003AC00001002400020024008B5FFF79BFF08BD7B
:1003BC0008B5104B1A6842F001021A6059680E4ACF
:1003CC000A405A601A6822F0847222F480321A6051
:1003DC001A6822F480221A605A6822F4FE025A60CB
:1003EC004FF41F029A60FFF7DFFF044B4FF00062DF
:1003FC009A6008BD001002400000FFF800ED00E01C
:10040C001F4B5B6803F00C03042B15D0082B17D083
:10041C001BB11C4B1C4A1A6002E01A4B1A4A1A6098
:10042C00174B5B68C3F30313184AD35CDAB2154954
:10043C000B68D3400B607047124B134A1A60EFE7FE
:10044C000F4A53685268C3F38343023312F4803F5C
:10045C000AD00B4A526812F4003F0BD00C4A02FB34
:10046C0003F3084A1360DBE7094A02FB03F3054A6E
:10047C001360D5E7044A02FB03F3024A1360CFE78B
:10048C00001002401C00002000127A000C0000201A
:10049C0000093D00044B1A6842F001021A60DA6848
:1004AC0042F00102DA60704700040140014B186011
:1004BC00704700BF2C00002008B5044B1B68984700
:1004CC00034A536943F00103536108BD2C0000201B
:1004DC000004014008B5012909D0184B98421ED0E0
:1004EC00174B984220D0174B984222D008BD134B83
:1004FC0098420AD0124B98420CD0124B9842F5D12C
:10050C000421022000F018F9F0E70221084600F05F
:10051C0013F9EBE70321022000F00EF9E6E70221C4
:10052C00084600F02FF9E1E70321022000F02AF938
:10053C00DCE70421022000F025F9D7E70008014090
:10054C00000C01400010014070B505460479467955
:10055C0001210068FFF7BEFF072C10D9083CE4B25C
:10056C0029684B68A4000F22A24023EA02034B60C7
:10057C002A68536806FA04F41C43546070BD296859
:10058C000B68A4000F22A24023EA02030B602A6826
:10059C00136806FA04F41C431460EFE7012A04D034
:1005AC00012303FA01F141617047012303FA01F1C0
:1005BC000161704700B587B0074B019300238DF89C
:1005CC00083004238DF809300DEB0300FFF7BCFF56
:1005DC0007B05DF804FB00BF0008014008B5094BEB
:1005EC001B78DBB2182B07D05E2B08D00C2B00D05D
:1005FC0008BD00F02FF9FBE700F036F9F8E700F042
:10060C003DF9F5E7F800002008B51F4B00221A70E1
:10061C001E4B1A6842F20F739A422DD91B4B1A6863
:10062C0043F2B0639A4227D8002309E0012202FA70
:10063C0001F11548027822EA010202700133DBB2A3
:10064C00072B17D8194603F11100104A52F8202035
:10065C00B2F5FA6FEAD30D4A52F8200040F6FC02CC
:10066C009042E3D801229A40074801781143C9B25D
:10067C000170E3E7FFF7B2FF0023054A1370034A4A
:10068C001360044A137008BDF800002030000020ED
:10069C00FA000020F900002038B50E4B1B7883B10E
:1006AC000D4C2578EDB200F017F90C4B43F82500F2
:1006BC000B490C4800F0F2F823780133DBB22370BD
:1006CC0038BD0749074800F0E9F8024B01221A70BF
:1006DC00F6E700BFFA000020F900002030000020EF
:1006EC001506000840420F00014B024A1A60704781
:1006FC000CED00E00005FA051F2809D93B2806D8A7
:10070C002038C0B2012303FA00F0044B1860704784
:10071C00012303FA00F0024B1860704704E100E07B
:10072C0000E100E0034B4FF480321A6004330122E5
:10073C001A607047001002401F291CD801280BD0EA
:10074C0010B1022810D070470B480368012202FA3E
:10075C0001F119430160704708480368012202FA4D
:10076C0001F119430160704705480368012202FA40
:10077C0001F1194301607047141002401C10024033
:10078C00181002401F291FD801280CD010B10228C4
:10079C0012D070470D480368012202FA01F123EAD6
:1007AC000101016070470A480368012202FA01F155
:1007BC0023EA01010160704706480368012202FA2E
:1007CC0001F123EA01010160704700BF14100240DF
:1007DC001C1002401810024000B587B0064B019364
:1007EC0001238DF808308DF8093001A8FFF7ACFE15
:1007FC0007B05DF804FB00BF0008014000B587B0EE
:10080C00064B019302238DF8083001238DF8093033
:10081C0001A8FFF799FE07B05DF804FB0008014042
:10082C0000B587B0064B019303238DF808300123E4
:10083C008DF8093001A8FFF787FE07B05DF804FBBF
:10084C000008014008B5FFF7C7FFFFF7D7FFFFF718
:10085C00E7FF08BD08B5012211460248FFF79EFECE
:10086C0008BD00BF0008014008B501220221024862
:10087C00FFF794FE08BD00BF0008014008B5012237
:10088C0003210248FFF78AFE08BD00BF00080140A3
:10089C00014B00221A60704710E000E010B40B4BC3
:1008AC001A6822F001021A6000249C6058601A68D1
:1008BC0042F001021A60064A1160064A14701A6866
:1008CC0042F002021A6010BC704700BF10E000E05A
:1008DC00FC000020FB000020024B58689B68C01AEB
:1008EC00704700BF10E000E008B50A4B1B785BB9FD
:1008FC00094B1A6822F002021A601A6842F00102CF
:10090C001A6000225A609A60044B1B689847024B8D
:10091C001B6808BDFB00002010E000E0FC0000207C
:10092C0008B5FFF7FFFEFFF745FEFFF78BFF064804
:10093C00FFF7BCFDFFF7AEFDFFF7D6FE0620FFF775
:0C094C00DBFEFFF7A5FFFEE7A506000894
:100958007856341228000020000000000000000033
:1009680000000000010203040607080900A24A0467
:0409780032547698E7
:040000050800010DE1
:00000001FF
