:020000040800F2
:100000000050002021020008270200082B020008EF
:1000100043020008470200085F02000800000000D9
:10002000000000000000000000000000770200084F
:100030007B020008000000007F0200088302000825
:100040009102000891020008910200089102000844
:100050009102000891020008910200089102000834
:100060009102000891020008910200089102000824
:100070009102000891020008910200089102000814
:100080009102000891020008910200089102000804
:1000900091020008910200089102000891020008F4
:1000A00091020008910200089102000891020008E4
:1000B00091020008910200089102000891020008D4
:1000C00091020008910200089102000891020008C4
:1000D00091020008910200089102000891020008B4
:1000E000910200089102000891020008000000003F
:1000F0000000000000000000000000000000000000
:1001000000000000000000005FF808F100B583B0B7
:1001100000F0DEF8304B314A1360314A1360314B46
:10012000314A32498B4204D21168196004330432D7
:10013000F7E72A4B1A682E4B9A4200D0FEE7284B6D
:100140001A682C4B9A42F9D1234B2B4A13602B4A45
:1001500013602B4B02E000221A600433294A9342B9
:10016000F9D3254B1B6813B9244B1B6803B1FEE779
:1001700000F0BAF8694601A800F0A2F8224C234B1F
:10018000E41AA4100025AC4214DC214C214BE41AE3
:10019000A4100025AC4213DC0099019800F086FD04
:1001A00005461D4C1D4BE41AA410002C0EDC2846FD
:1001B00000F084F8154B53F8253098470135E2E7F5
:1001C000144B53F8253098470135E3E7013C134BB6
:1001D00053F824309847E8E7BABADECA0000002096
:1001E0002000002000000020300D00082400002026
:1001F0007856341232547698240000202C000020C7
:100200002400002030000020BC020008BC020008CE
:10021000BC020008BC020008BC020008BC020008C6
:1002200008B5FFF773FF00BEFEE71EF0040F0CBF1A
:10023000EFF30880EFF309807146124A104700BEC1
:10024000FEE700BEFEE71EF0040F0CBFEFF30880D0
:10025000EFF3098071460C4A104700BEFEE71EF01E
:10026000040F0CBFEFF30880EFF309807146074AD3
:10027000104700BEFEE700BEFEE700BEFEE700BE80
:10028000FEE770473F0200085B02000873020008A7
:0402900000BEFEE7C7
:10029400300D00080000002024000020300D00086C
:1002A40000000000000000002400002030000020B6
:0802B400000000000000000042
:1002BC00FEE7000001230360014B0B60704700BF99
:1002CC000400002008B500F073F8024A024B9A6053
:1002DC0008BD00BF0000000800ED00E008B500F00C
:1002EC008FF808BD82B00023019300932C4A136849
:1002FC0043F4803313602A4B1B6803F400330093E0
:10030C00019B01330193009B1BB9019BB3F5A06FBB
:10031C00F1D1234B1B6813F4003F06D0012300934B
:10032C00009B012B04D002B0704700230093F7E729
:10033C001C4B1A6842F010021A601A6822F0030271
:10034C001A601A6842F002021A60A3F580535A68C8
:10035C005A605A685A605A6842F480625A605A6805
:10036C0022F47C125A605A6842F4E8125A601A68F5
:10037C0042F080721A600A4B1B6813F0007FFAD0AF
:10038C00074B5A6822F003025A605A6842F0020284
:10039C005A60034B5B6803F00C03082BF9D1C2E7DE
:1003AC00001002400020024008B5FFF79BFF08BD7B
:1003BC0008B5104B1A6842F001021A6059680E4ACF
:1003CC000A405A601A6822F0847222F480321A6051
:1003DC001A6822F480221A605A6822F4FE025A60CB
:1003EC004FF41F029A60FFF7DFFF044B4FF00062DF
:1003FC009A6008BD001002400000FFF800ED00E01C
:10040C001F4B5B6803F00C03042B15D0082B17D083
:10041C001BB11C4B1C4A1A6002E01A4B1A4A1A6098
:10042C00174B5B68C3F30313184AD35CDAB2154954
:10043C000B68D3400B607047124B134A1A60EFE7FE
:10044C000F4A53685268C3F38343023312F4803F5C
:10045C000AD00B4A526812F4003F0BD00C4A02FB34
:10046C0003F3084A1360DBE7094A02FB03F3054A6E
:10047C001360D5E7044A02FB03F3024A1360CFE78B
:10048C00001002401C00002000127A000C0000201A
:10049C0000093D0008B5012909D0184B98421ED01F
:1004AC00174B984220D0174B984222D008BD134BC3
:1004BC0098420AD0124B98420CD0124B9842F5D16C
:1004CC000F21022000F028FAF0E70921022000F0A9
:1004DC0023FAEBE70A21022000F01EFAE6E70921D5
:1004EC00022000F03FFAE1E70A21022000F03AFA7C
:1004FC00DCE70F21022000F035FAD7E70024014099
:10050C0000280140003C01402DE9F84304460579E0
:10051C0090F8068090F80590C779067A012100685A
:10052C00FFF7B8FFB8F1000F3AD12268936843F493
:10053C0000639360092D3CD82068026905EB4503E4
:10054C000721994022EA0102026121680A6909FA2D
:10055C0003F313430B612268536B06EB8606B5401D
:10056C001D435563002F38D0022F3CD0226893686E
:10057C0043F0010393602268936843F0080393608F
:10058C0023689A6812F0080FFAD19A6842F00402B4
:10059C009A6023689B6813F0040FFAD1BDE8F883C6
:1005AC00B8F1010FC6D12268936823F400639360FD
:1005BC00C0E7112DCFD82068C268A5F10A0303EB60
:1005CC0043030721994022EA0102C2602168CA68EC
:1005DC0009FA03F31343CB60BDE72268936843F039
:1005EC0002039360C2E72268936823F002039360CE
:1005FC00BCE701460268936823F00103936002682C
:10060C00936843F0010393600268936843F001031D
:10061C0093600B681A6812F0020FFAD0D86C1A6843
:10062C0022F002021A600A68136823F010031360A8
:10063C007047000008B5012909D0184B98421ED00C
:10064C00174B984220D0174B984222D008BD134B21
:10065C0098420AD0124B98420CD0124B9842F5D1CA
:10066C000421022000F058F9F0E70221084600F0BE
:10067C0053F9EBE70321022000F04EF9E6E70221E3
:10068C00084600F06FF9E1E70321022000F06AF957
:10069C00DCE70421022000F065F9D7E700080140EF
:1006AC00000C01400010014070B5054604794679F4
:1006BC0001210068FFF7BEFF072C10D9083CE4B2FB
:1006CC0029684B68A4000F22A24023EA02034B6066
:1006DC002A68536806FA04F41C43546070BD2968F8
:1006EC000B68A4000F22A24023EA02030B602A68C5
:1006FC00136806FA04F41C431460EFE7012A04D0D3
:10070C00012303FA01F141617047012303FA01F15E
:10071C000161704770B50446057B066901210068CC
:10072C00FFF788FF35B1012D06D1226853681E43AF
:10073C00566001E023681E6070BD11B1012908D01C
:10074C007047C36823F0FF03C360C3681A43C260D9
:10075C007047C36823F47F43C360C36843EA022233
:10076C00C260EDE7002206E000BF0133DBB2632B71
:10077C00FAD90132D2B2632A01D80023F7E77047C5
:10078C0038B505460F4C002207212046FFF7B6FF6F
:10079C00012206212046FFF7B1FF2A4601212046FF
:1007AC00FFF7CBFF002206212046FFF7A7FFFFF73C
:1007BC00D9FF012206212046FFF7A0FFFFF7D2FF49
:1007CC0038BD00BF000C014030B591B0194D0195FA
:1007DC0001248DF810404FF01133059301A8FFF759
:1007EC0099FF0B9507238DF830308DF831400BA80D
:1007FC00FFF75AFF069506258DF81C508DF81D4005
:10080C0006A8FFF751FF3820FFF7BAFFFFF7AAFF42
:10081C000F20FFF7B5FFFFF7A5FF2046FFF7B0FF4E
:10082C00FFF7A0FF2846FFF7ABFFFFF79BFF11B0C8
:10083C0030BD00BF000C014038B50546104C0122FC
:10084C0007212046FFF75AFF012206212046FFF719
:10085C0055FF2A4601212046FFF76FFF0022062193
:10086C002046FFF74BFFFFF77DFF012206212046B4
:10087C00FFF744FFFFF776FFFFF774FF38BD00BFAB
:10088C00000C014008B5431EDBB20F2B03D8012925
:10089C0002D0022905D008BD7F30C0B2FFF770FF2F
:1008AC00F9E74138C0B2FFF76BFFF4E770B584B0DD
:1008BC0005460C46002301930293ADF80C30202022
:1008CC00FFF7BAFF04220FE004AB03EB4206114B17
:1008DC00A3FB0513DB0803EB83014800281A26F859
:1008EC000C0C9DB2013A92B2002DEDD1C4F105046D
:1008FC00A4B20AE004AB03EB440333F80C0C303025
:10090C00C0B2FFF799FF0134A4B2042CF2D904B0A1
:10091C0070BD00BFCDCCCCCC1F291CD801280BD06E
:10092C0010B1022810D070470B480368012202FA5C
:10093C0001F119430160704708480368012202FA6B
:10094C0001F119430160704705480368012202FA5E
:10095C0001F1194301607047141002401C10024051
:10096C00181002401F291FD801280CD010B10228E2
:10097C0012D070470D480368012202FA01F123EAF4
:10098C000101016070470A480368012202FA01F173
:10099C0023EA01010160704706480368012202FA4C
:1009AC0001F123EA01010160704700BF14100240FD
:1009BC001C10024018100240034B4FF480321A6096
:1009CC00043301221A6070470010024008B5012957
:1009DC003ED0002940F0B080764B984200F0A880C1
:1009EC00B0F1804F00F0A980734B984200F0AA80C0
:1009FC00724B984200F0AB80714B984200F0AC8087
:100A0C00704B984200F0AD806F4B984200F0AE8076
:100A1C006E4B984200F0AF806D4B984200F0B08066
:100A2C006C4B984200F0B1806B4B984200F0B28056
:100A3C006A4B984200F0B380694B984200F0B48046
:100A4C00684B984278D108210120FFF78BFF73E0A7
:100A5C00584B98422BD0B0F1804F2DD0564B98422A
:100A6C002FD0564B984231D0554B984233D0554BE2
:100A7C00984235D0544B984237D0544B984239D089
:100A8C00534B98423BD0534B98423DD0524B9842DB
:100A9C003FD0524B984241D0514B984243D0514B8E
:100AAC00984249D108210120FFF736FF44E00B2181
:100ABC000220FFF731FF3FE000210120FFF72CFF60
:100ACC003AE001210846FFF727FF35E0022101201B
:100ADC00FFF722FF30E003210120FFF71DFF2BE081
:100AEC0004210120FFF718FF26E005210120FFF764
:100AFC0013FF21E00D210220FFF70EFF1CE0132154
:100B0C000220FFF709FF17E014210220FFF704FF72
:100B1C0012E015210220FFF7FFFE0DE00621012057
:100B2C00FFF7FAFE08E007210120FFF7F5FE03E0CE
:100B3C000B210220FFF716FF08BD00210120FFF753
:100B4C0011FFF9E701210846FFF70CFFF4E702213A
:100B5C000120FFF707FFEFE703210120FFF702FF5A
:100B6C00EAE704210120FFF7FDFEE5E7052101205E
:100B7C00FFF7F8FEE0E70D210220FFF7F3FEDBE7BD
:100B8C0013210220FFF7EEFED6E714210220FFF717
:100B9C00E9FED1E715210220FFF7E4FECCE70621A0
:100BAC000120FFF7DFFEC7E707210120FFF7DAFE80
:100BBC00C2E700BF002C01400004004000080040C8
:100BCC00000C0040001000400014004000340140B4
:100BDC00004C0140005001400054014000180040FE
:100BEC00001C00400020004010B5044601210068A4
:100BFC00FFF7ECFE2379F3B9236807229A62236886
:100C0C0044F62062DA62236840F23C525A6322684E
:100C1C00936923F0700393612268936943F0600336
:100C2C0093612268936943F0080393612268136A05
:100C3C0043F0010313622268136843F0010313604D
:100C4C0010BD000010B588B00A4B039300248DF83A
:100C5C00104009238DF8113003A8FFF725FD4FF044
:100C6C00804301938DF8084001A8FFF7BDFF08B041
:100C7C0010BD00BF00080140C162036843F00103CE
:100C8C0003607047002205E000BF0133B3F5167F07
:100C9C00FADB0132B2F5167F01DA0023F6E7704772
:100CAC0010B58AB0FFF788FE1C4B059300248DF815
:100CBC0018408DF8194005A8FFF7F6FC184B019366
:100CCC0008238DF8083001238DF80A3003238DF8A2
:100CDC00093002238DF80B308DF80C4001A8FFF77A
:100CEC0013FCFFF771FDFFF7ADFFFFF7CBFF01A87A
:100CFC00FFF77FFC044601210846FFF7C3FDA4B2B1
:100D0C0005212046FFF7D2FDFFF7BCFF21464FF02F
:100D1C008040FFF7B1FFFFF7B5FFE8E7000C01409B
:040D2C00002401405E
:100D30007856341228000020000000000000000057
:100D400000000000010203040607080900A24A048B
:040D5000325476980B
:040000050800010DE1
:00000001FF
