:020000040800F2
:100000000050002021020008270200082B020008EF
:1000100043020008470200085F02000800000000D9
:10002000000000000000000000000000770200084F
:100030007B020008000000007F0200088302000825
:100040009102000891020008910200089102000844
:100050009102000891020008910200089102000834
:100060009102000891020008910200089102000824
:100070009102000891020008910200089102000814
:100080009102000891020008910200089102000804
:1000900091020008910200089102000891020008F4
:1000A00091020008910200089102000891020008E4
:1000B00091020008910200089102000891020008D4
:1000C00091020008910200089102000891020008C4
:1000D00091020008910200089102000891020008B4
:1000E000910200089102000891020008000000003F
:1000F0000000000000000000000000000000000000
:1001000000000000000000005FF808F100B583B0B7
:1001100000F0DEF8304B314A1360314A1360314B46
:10012000314A32498B4204D21168196004330432D7
:10013000F7E72A4B1A682E4B9A4200D0FEE7284B6D
:100140001A682C4B9A42F9D1234B2B4A13602B4A45
:1001500013602B4B02E000221A600433294A9342B9
:10016000F9D3254B1B6813B9244B1B6803B1FEE779
:1001700000F0BAF8694601A800F0A2F8224C234B1F
:10018000E41AA4100025AC4214DC214C214BE41AE3
:10019000A4100025AC4213DC0099019800F04CFB40
:1001A00005461D4C1D4BE41AA410002C0EDC2846FD
:1001B00000F084F8154B53F8253098470135E2E7F5
:1001C000144B53F8253098470135E3E7013C134BB6
:1001D00053F824309847E8E7BABADECA0000002096
:1001E00020000020000000206408000824000020F7
:1001F0007856341232547698240000202C000020C7
:100200002400002030000020BC020008BC020008CE
:10021000BC020008BC020008BC020008BC020008C6
:1002200008B5FFF773FF00BEFEE71EF0040F0CBF1A
:10023000EFF30880EFF309807146124A104700BEC1
:10024000FEE700BEFEE71EF0040F0CBFEFF30880D0
:10025000EFF3098071460C4A104700BEFEE71EF01E
:10026000040F0CBFEFF30880EFF309807146074AD3
:10027000104700BEFEE700BEFEE700BEFEE700BE80
:10028000FEE770473F0200085B02000873020008A7
:0402900000BEFEE7C7
:10029400640800080000002024000020640800080E
:1002A40000000000000000002400002030000020B6
:0802B400000000000000000042
:1002BC00FEE7000001230360014B0B60704700BF99
:1002CC000400002008B500F073F8024A024B9A6053
:1002DC0008BD00BF0000000800ED00E008B500F00C
:1002EC008FF808BD82B00023019300932C4A136849
:1002FC0043F4803313602A4B1B6803F400330093E0
:10030C00019B01330193009B1BB9019BB3F5A06FBB
:10031C00F1D1234B1B6813F4003F06D0012300934B
:10032C00009B012B04D002B0704700230093F7E729
:10033C001C4B1A6842F010021A601A6822F0030271
:10034C001A601A6842F002021A60A3F580535A68C8
:10035C005A605A685A605A6842F480625A605A6805
:10036C0022F47C125A605A6842F4E8125A601A68F5
:10037C0042F080721A600A4B1B6813F0007FFAD0AF
:10038C00074B5A6822F003025A605A6842F0020284
:10039C005A60034B5B6803F00C03082BF9D1C2E7DE
:1003AC00001002400020024008B5FFF79BFF08BD7B
:1003BC0008B5104B1A6842F001021A6059680E4ACF
:1003CC000A405A601A6822F0847222F480321A6051
:1003DC001A6822F480221A605A6822F4FE025A60CB
:1003EC004FF41F029A60FFF7DFFF044B4FF00062DF
:1003FC009A6008BD001002400000FFF800ED00E01C
:10040C001F4B5B6803F00C03042B15D0082B17D083
:10041C001BB11C4B1C4A1A6002E01A4B1A4A1A6098
:10042C00174B5B68C3F30313184AD35CDAB2154954
:10043C000B68D3400B607047124B134A1A60EFE7FE
:10044C000F4A53685268C3F38343023312F4803F5C
:10045C000AD00B4A526812F4003F0BD00C4A02FB34
:10046C0003F3084A1360DBE7094A02FB03F3054A6E
:10047C001360D5E7044A02FB03F3024A1360CFE78B
:10048C00001002401C00002000127A000C0000201A
:10049C0000093D0008B5012909D0184B98421ED01F
:1004AC00174B984220D0174B984222D008BD134BC3
:1004BC0098420AD0124B98420CD0124B9842F5D16C
:1004CC000421022000F058F9F0E70221084600F060
:1004DC0053F9EBE70321022000F04EF9E6E7022185
:1004EC00084600F06FF9E1E70321022000F06AF9F9
:1004FC00DCE70421022000F065F9D7E70008014091
:10050C00000C01400010014070B505460479467995
:10051C0001210068FFF7BEFF072C10D9083CE4B29C
:10052C0029684B68A4000F22A24023EA02034B6007
:10053C002A68536806FA04F41C43546070BD296899
:10054C000B68A4000F22A24023EA02030B602A6866
:10055C00136806FA04F41C431460EFE7012A04D074
:10056C00012303FA01F141617047012303FA01F100
:10057C000161704770B50446057B0669012100686E
:10058C00FFF788FF35B1012D06D1226853681E4351
:10059C00566001E023681E6070BD11B1012908D0BE
:1005AC007047C36823F0FF03C360C3681A43C2607B
:1005BC007047C36823F47F43C360C36843EA0222D5
:1005CC00C260EDE7002206E000BF0133DBB2632B13
:1005DC00FAD90132D2B2632A01D80023F7E7704767
:1005EC0038B505460F4C002207212046FFF7B6FF11
:1005FC00012206212046FFF7B1FF2A4601212046A1
:10060C00FFF7CBFF002206212046FFF7A7FFFFF7DD
:10061C00D9FF012206212046FFF7A0FFFFF7D2FFEA
:10062C0038BD00BF000C014030B591B0194D01959B
:10063C0001248DF810404FF01133059301A8FFF7FA
:10064C0099FF0B9507238DF830308DF831400BA8AE
:10065C00FFF75AFF069506258DF81C508DF81D40A6
:10066C0006A8FFF751FF3820FFF7BAFFFFF7AAFFE4
:10067C000F20FFF7B5FFFFF7A5FF2046FFF7B0FFF0
:10068C00FFF7A0FF2846FFF7ABFFFFF79BFF11B06A
:10069C0030BD00BF000C014038B50546104C01229E
:1006AC0007212046FFF75AFF012206212046FFF7BB
:1006BC0055FF2A4601212046FFF76FFF0022062135
:1006CC002046FFF74BFFFFF77DFF01220621204656
:1006DC00FFF744FFFFF776FFFFF774FF38BD00BF4D
:1006EC00000C014008B5431EDBB20F2B03D80129C7
:1006FC0002D0022905D008BD7F30C0B2FFF770FFD1
:10070C00F9E74138C0B2FFF76BFFF4E770B584B07E
:10071C0005460C46002301930293ADF80C302020C3
:10072C00FFF7BAFF04220FE004AB03EB4206114BB8
:10073C00A3FB0513DB0803EB83014800281A26F8FA
:10074C000C0C9DB2013A92B2002DEDD1C4F105040E
:10075C00A4B20AE004AB03EB440333F80C0C3030C6
:10076C00C0B2FFF799FF0134A4B2042CF2D904B043
:10077C0070BD00BFCDCCCCCC1F291CD801280BD010
:10078C0010B1022810D070470B480368012202FAFE
:10079C0001F119430160704708480368012202FA0D
:1007AC0001F119430160704705480368012202FA00
:1007BC0001F1194301607047141002401C100240F3
:1007CC00181002401F291FD801280CD010B1022884
:1007DC0012D070470D480368012202FA01F123EA96
:1007EC000101016070470A480368012202FA01F115
:1007FC0023EA01010160704706480368012202FAEE
:10080C0001F123EA01010160704700BF141002409E
:10081C001C10024018100240034B4FF480321A6037
:10082C00043301221A6070470010024008B5FFF72C
:10083C00F3FFFFF7F9FE01210846FFF753FF732082
:10084C00FFF72AFF02210120FFF74CFF042140F2A1
:08085C00D240FFF75BFFFEE74D
:100864007856341228000020000000000000000028
:1008740000000000010203040607080900A24A045C
:0408840032547698DC
:040000050800010DE1
:00000001FF
