:020000040800F2
:100000000050002021020008270200082B020008EF
:1000100043020008470200085F02000800000000D9
:10002000000000000000000000000000770200084F
:100030007B020008000000007F0200088302000825
:100040009102000891020008910200089102000844
:100050009102000891020008910200089102000834
:10006000910200089102000891020008D5070008DB
:100070009102000891020008910200089102000814
:100080009102000891020008910200089102000804
:1000900091020008910200089102000891020008F4
:1000A00091020008910200089102000891020008E4
:1000B00091020008910200089102000891020008D4
:1000C00091020008910200089102000891020008C4
:1000D00091020008910200089102000891020008B4
:1000E000910200089102000891020008000000003F
:1000F0000000000000000000000000000000000000
:1001000000000000000000005FF808F100B583B0B7
:1001100000F0DEF8304B314A1360314A1360314B46
:10012000314A32498B4204D21168196004330432D7
:10013000F7E72A4B1A682E4B9A4200D0FEE7284B6D
:100140001A682C4B9A42F9D1234B2B4A13602B4A45
:1001500013602B4B02E000221A600433294A9342B9
:10016000F9D3254B1B6813B9244B1B6803B1FEE779
:1001700000F0BAF8694601A800F0A2F8224C234B1F
:10018000E41AA4100025AC4214DC214C214BE41AE3
:10019000A4100025AC4213DC0099019800F0FCFA91
:1001A00005461D4C1D4BE41AA410002C0EDC2846FD
:1001B00000F084F8154B53F8253098470135E2E7F5
:1001C000144B53F8253098470135E3E7013C134BB6
:1001D00053F824309847E8E7BABADECA0000002096
:1001E0002000002000000020E40700082400002078
:1001F000785634123254769824000020701F002064
:1002000024000020741F0020BC020008BC0200086B
:10021000BC020008BC020008BC020008BC020008C6
:1002200008B5FFF773FF00BEFEE71EF0040F0CBF1A
:10023000EFF30880EFF309807146124A104700BEC1
:10024000FEE700BEFEE71EF0040F0CBFEFF30880D0
:10025000EFF3098071460C4A104700BEFEE71EF01E
:10026000040F0CBFEFF30880EFF309807146074AD3
:10027000104700BEFEE700BEFEE700BEFEE700BE80
:10028000FEE770473F0200085B02000873020008A7
:0402900000BEFEE7C7
:10029400E40700080000002024000020E407000810
:1002A400000000000000000024000020741F002053
:0802B400000000000000000042
:1002BC00FEE7000001230360014B0B60704700BF99
:1002CC000400002008B500F073F8024A024B9A6053
:1002DC0008BD00BF0000000800ED00E008B500F00C
:1002EC008FF808BD82B00023019300932C4A136849
:1002FC0043F4803313602A4B1B6803F400330093E0
:10030C00019B01330193009B1BB9019BB3F5A06FBB
:10031C00F1D1234B1B6813F4003F06D0012300934B
:10032C00009B012B04D002B0704700230093F7E729
:10033C001C4B1A6842F010021A601A6822F0030271
:10034C001A601A6842F002021A60A3F580535A68C8
:10035C005A605A685A605A6842F480625A605A6805
:10036C0022F47C125A605A6842F4E8125A601A68F5
:10037C0042F080721A600A4B1B6813F0007FFAD0AF
:10038C00074B5A6822F003025A605A6842F0020284
:10039C005A60034B5B6803F00C03082BF9D1C2E7DE
:1003AC00001002400020024008B5FFF79BFF08BD7B
:1003BC0008B5104B1A6842F001021A6059680E4ACF
:1003CC000A405A601A6822F0847222F480321A6051
:1003DC001A6822F480221A605A6822F4FE025A60CB
:1003EC004FF41F029A60FFF7DFFF044B4FF00062DF
:1003FC009A6008BD001002400000FFF800ED00E01C
:10040C001F4B5B6803F00C03042B15D0082B17D083
:10041C001BB11C4B1C4A1A6002E01A4B1A4A1A6098
:10042C00174B5B68C3F30313184AD35CDAB2154954
:10043C000B68D3400B607047124B134A1A60EFE7FE
:10044C000F4A53685268C3F38343023312F4803F5C
:10045C000AD00B4A526812F4003F0BD00C4A02FB34
:10046C0003F3084A1360DBE7094A02FB03F3054A6E
:10047C001360D5E7044A02FB03F3024A1360CFE78B
:10048C00001002401C00002000127A000C0000201A
:10049C0000093D0010B48B005C18A2001446024405
:1004AC00926842F001022044826010BC7047000048
:1004BC0004494B688000012202FA00F003434B60B0
:1004CC00704700BF0000024004494B688000421C8A
:1004DC000120904003434B60704700BF0000024076
:1004EC0008B5012907D029B90F4B984213D00F4BEF
:1004FC00984214D008BD0C4B984207D00B4B984235
:10050C00F8D10121002000F011F9F3E70021084691
:10051C0000F00CF9EEE7084600F008F9EAE70121D3
:10052C00002000F003F9E5E700000240000402405F
:10053C0010B5044601210068FFF7D2FF6379012B47
:10054C0007D00023A279032A08D8DFE802F0056857
:10055C006D724FF48043F5E723F44053E279012A9E
:10056C006DD0002A68D0022A6ED0227A012A73D06C
:10057C00002A6ED0022A74D0627A002A76D0012A20
:10058C0001D143F08003A27A002A72D0012A01D152
:10059C0043F04003E27A002A6ED0012A01D143F0E5
:1005AC002003227B002A6AD0012A01D143F01003D8
:1005BC00627B002A66D0012A01D143F00803A27B9A
:1005CC00002A62D0012A01D143F00403E27B002A05
:1005DC005ED0012A01D143F0020323F0010321680C
:1005EC00227902EB8202900001448B602069226820
:1005FC00237903EB830399000A4410616069226834
:10060C00237903EB830399000A4450612268237910
:10061C00208B03EB830399005318D86010BD23F48F
:10062C00005343F4805399E723F4805343F400536D
:10063C0094E743F4405391E723F4406395E723F4A4
:10064C00006343F4806390E723F4806343F4006316
:10065C008BE723F440738FE723F4007343F4807328
:10066C008AE723F4807343F4007385E723F0800357
:10067C0089E723F040038DE723F0200391E723F073
:10068C00100395E723F0080399E723F004039DE793
:10069C0023F00203A1E7000000B589B0154B0193CC
:1006AC00154B0593154B06934FF47A73ADF81C302C
:1006BC0000238DF8083001228DF8092003218DF8D4
:1006CC000A1002218DF80B108DF80C108DF80D20EE
:1006DC008DF80E208DF80F308DF810308DF813201A
:1006EC008DF811308DF8123001A8FFF721FF09B0F9
:1006FC005DF804FB000002402C000020D00F00200D
:10070C001F2809D93B2806D82038C0B2012303FA88
:10071C0000F0044B18607047012303FA00F0024B01
:10072C001860704704E100E000E100E01F291CD8CC
:10073C0001280BD010B1022810D070470B48036869
:10074C00012202FA01F1194301607047084803685D
:10075C00012202FA01F11943016070470548036850
:10076C00012202FA01F11943016070471410024092
:10077C001C10024018100240034B4FF480321A60D8
:10078C00043301221A6070470010024008B5FFF7CD
:10079C00F3FFFFF781FF0B20FFF7B2FF00210848A2
:1007AC00FFF778FE074B00221A8002E00133054A5E
:1007BC001380044B1B88B3F57A7FF7D3FEE700BF99
:1007CC0000000240CC0F002008B50020FFF770FE9F
:0807DC000020FFF779FE08BDC3
:1007E40078563412280000200000000000000000A9
:1007F40000000000010203040607080900A24A04DD
:04080400325476985C
:040000050800010DE1
:00000001FF
