:020000040800F2
:100000000050002021020008270200082B020008EF
:1000100043020008470200085F02000800000000D9
:10002000000000000000000000000000770200084F
:100030007B020008000000007F020008F5070008AE
:100040009102000891020008910200089102000844
:100050009102000891020008910200089102000834
:100060009102000891020008910200089102000824
:100070009102000891020008910200089102000814
:100080009102000891020008910200089102000804
:1000900091020008910200089102000891020008F4
:1000A00091020008910200089102000891020008E4
:1000B00091020008910200089102000891020008D4
:1000C00091020008910200089102000891020008C4
:1000D00091020008910200089102000891020008B4
:1000E000910200089102000891020008000000003F
:1000F0000000000000000000000000000000000000
:1001000000000000000000005FF808F100B583B0B7
:1001100000F0DEF8304B314A1360314A1360314B46
:10012000314A32498B4204D21168196004330432D7
:10013000F7E72A4B1A682E4B9A4200D0FEE7284B6D
:100140001A682C4B9A42F9D1234B2B4A13602B4A45
:1001500013602B4B02E000221A600433294A9342B9
:10016000F9D3254B1B6813B9244B1B6803B1FEE779
:1001700000F0BAF8694601A800F0A2F8224C234B1F
:10018000E41AA4100025AC4214DC214C214BE41AE3
:10019000A4100025AC4213DC0099019800F014FC77
:1001A00005461D4C1D4BE41AA410002C0EDC2846FD
:1001B00000F084F8154B53F8253098470135E2E7F5
:1001C000144B53F8253098470135E3E7013C134BB6
:1001D00053F824309847E8E7BABADECA0000002096
:1001E0002000002000000020E8A9000824000020D2
:1001F00078563412325476982400002030000020C3
:100200002400002034000020BC020008BC020008CA
:10021000BC020008BC020008BC020008BC020008C6
:1002200008B5FFF773FF00BEFEE71EF0040F0CBF1A
:10023000EFF30880EFF309807146124A104700BEC1
:10024000FEE700BEFEE71EF0040F0CBFEFF30880D0
:10025000EFF3098071460C4A104700BEFEE71EF01E
:10026000040F0CBFEFF30880EFF309807146074AD3
:10027000104700BEFEE700BEFEE700BEFEE700BE80
:10028000FEE770473F0200085B02000873020008A7
:0402900000BEFEE7C7
:10029400E8A900080000002024000020E8A90008C4
:1002A40000000000000000002400002034000020B2
:0802B400000000000000000042
:1002BC00FEE7000001230360014B0B60704700BF99
:1002CC000400002008B500F073F8024A024B9A6053
:1002DC0008BD00BF0000000800ED00E008B500F00C
:1002EC008FF808BD82B00023019300932C4A136849
:1002FC0043F4803313602A4B1B6803F400330093E0
:10030C00019B01330193009B1BB9019BB3F5A06FBB
:10031C00F1D1234B1B6813F4003F06D0012300934B
:10032C00009B012B04D002B0704700230093F7E729
:10033C001C4B1A6842F010021A601A6822F0030271
:10034C001A601A6842F002021A60A3F580535A68C8
:10035C005A605A685A605A6842F480625A605A6805
:10036C0022F47C125A605A6842F4E8125A601A68F5
:10037C0042F080721A600A4B1B6813F0007FFAD0AF
:10038C00074B5A6822F003025A605A6842F0020284
:10039C005A60034B5B6803F00C03082BF9D1C2E7DE
:1003AC00001002400020024008B5FFF79BFF08BD7B
:1003BC0008B5104B1A6842F001021A6059680E4ACF
:1003CC000A405A601A6822F0847222F480321A6051
:1003DC001A6822F480221A605A6822F4FE025A60CB
:1003EC004FF41F029A60FFF7DFFF044B4FF00062DF
:1003FC009A6008BD001002400000FFF800ED00E01C
:10040C001F4B5B6803F00C03042B15D0082B17D083
:10041C001BB11C4B1C4A1A6002E01A4B1A4A1A6098
:10042C00174B5B68C3F30313184AD35CDAB2154954
:10043C000B68D3400B607047124B134A1A60EFE7FE
:10044C000F4A53685268C3F38343023312F4803F5C
:10045C000AD00B4A526812F4003F0BD00C4A02FB34
:10046C0003F3084A1360DBE7094A02FB03F3054A6E
:10047C001360D5E7044A02FB03F3024A1360CFE78B
:10048C00001002401C00002000127A000C0000201A
:10049C0000093D0008B5012909D0184B98421ED01F
:1004AC00174B984220D0174B984222D008BD134BC3
:1004BC0098420AD0124B98420CD0124B9842F5D16C
:1004CC000421022000F06AF8F0E70221084600F04F
:1004DC0065F8EBE70321022000F060F8E6E7022163
:1004EC00084600F081F8E1E70321022000F07CF8D7
:1004FC00DCE70421022000F077F8D7E70008014080
:10050C00000C01400010014070B505460479467995
:10051C0001210068FFF7BEFFA6F10903DBB2022B35
:10052C0012D9072C15D9083CE4B229684B68A400F1
:10053C000F22A24023EA02034B602A68536806FA92
:10054C0004F41C43546070BD0021022000F026F816
:10055C00E7E729680B68A4000F22A24023EA0203F4
:10056C000B602A68136806FA04F41C431460EAE76B
:10057C00012A04D0012303FA01F1416170470123E0
:10058C0003FA01F101617047034B4FF480321A609A
:10059C00043301221A607047001002401F291CD836
:1005AC0001280BD010B1022810D070470B480368FB
:1005BC00012202FA01F119430160704708480368EF
:1005CC00012202FA01F119430160704705480368E2
:1005DC00012202FA01F11943016070471410024024
:1005EC001C100240181002401F291FD801280CD0E3
:1005FC0010B1022812D070470D480368012202FA8C
:10060C0001F123EA0101016070470A4803680122E5
:10061C0002FA01F123EA0101016070470648036800
:10062C00012202FA01F123EA01010160704700BFC7
:10063C00141002401C10024018100240012904D072
:10064C00036823F0400303607047036843F04003E2
:10065C000360704708B501290AD041B9184B98427C
:10066C001ED0184B984220D0174B984222D008BD70
:10067C00134B98420AD0134B98420CD0124B984211
:10068C00F5D10F210120FFF789FFF0E70C210220A3
:10069C00FFF784FFEBE70E210120FFF77FFFE6E772
:1006AC000C210220FFF7A0FFE1E70E210120FFF74C
:1006BC009BFFDCE70F210120FFF796FFD7E700BF78
:1006CC000030014000380040003C004010B50446AA
:1006DC0001210068FFF7BEFF23799B006279012A94
:1006EC0008D0022A20D0032A06D123F4004343F475
:1006FC00806301E023F40043A27943EAC203E27968
:10070C0043EAC223227A43EA4203627A1343A27A6F
:10071C0043EA4223E27A43EA02232268136001216E
:10072C002068FFF78BFF10BD43F40043E4E70000A3
:10073C0000B587B00C4B009301238DF805308DF874
:10074C00043000228DF806208DF807208DF8083033
:10075C008DF809308DF80A308DF80B306846FFF7AC
:10076C00B5FF07B05DF804FB0030014083680B4215
:10077C0001D1002070470120704770B504460E4629
:10078C00154603E016F8013BE360013D75B102210B
:10079C002046FFF7EBFF0028F9D0236813F4006F15
:1007AC00F0D036F8013BE360023DEFE770BD00008E
:1007BC00014B00221A60704710E000E0094B5860B2
:1007CC001A6842F001021A60064B1B6813F4803F52
:1007DC00FAD0044B1A6842F001021A6000225A60E7
:1007EC009A60704710E000E008B50A4B1B785BB9C3
:1007FC00094B1A6822F002021A601A6842F00102D0
:10080C001A6000225A609A60044B1B689847024B8E
:10081C001B6808BD2900002010E000E02C0000201F
:10082C0010B582B002AC04F8010D0122022105487A
:10083C00FFF79EFE012221460348FFF79EFF02B000
:10084C0010BD00BF000801400030014010B582B05F
:10085C0002AC04F8010D002202210548FFF788FEC6
:10086C00012221460348FFF788FF02B010BD00BFEC
:10087C00000801400030014030B595B0134C0F9486
:10088C0001238DF8403002258DF841500FA8FFF759
:10089C003BFE0A948DF82C508DF82D500AA8FFF7CA
:1008AC0033FE059407238DF8183009258DF819505F
:1008BC0005A8FFF729FE009405238DF804308DF868
:1008CC0005506846FFF720FE15B030BD000801400A
:1008DC0010B5FFF7D1FF1C4C012211462046FFF743
:1008EC0047FE6420FFF76AFF002201212046FFF734
:1008FC003FFE0120FFF762FF012211462046FFF761
:10090C0037FE6420FFF75AFF002201212046FFF733
:10091C002FFE6420FFF752FF012211462046FFF7FD
:10092C0027FE0A48FFF74AFF1120FFF78FFF084800
:10093C00FFF744FF3A20FFF789FF0520FFF770FF10
:10094C002920FFF783FF10BD00080140C0D401002F
:10095C00F049020038B505462A20FFF777FF002042
:10096C00FFF75EFF0020FFF75BFF0020FFF758FF4B
:10097C007F20FFF755FF2B20FFF768FF0020FFF7C4
:10098C004FFF0020FFF74CFF0020FFF749FF9F208F
:10099C00FFF746FF2C20FFF759FF00240AE035F83B
:1009AC001400000AFFF73CFF15F81400FFF738FF9E
:1009BC000134A4B2B4F5A04FF1D338BD08B5FFF79C
:1009CC00E3FDFFF7F5FEFFF7B3FEFFF781FF0248EB
:1009DC00FFF7C0FFFEE700BFE80900088259825903
:1009EC006259425122514251625163598359835980
:1009FC00A359E461E561E559E459055AE561C55926
:100A0C00C459C559A551A451A551C559C559E65943
:100A1C00E559E561266A8772C87AE882C77AA77AAF
:100A2C0087726672666A466A466A666A25622562DB
:100A3C002562256225620562E4590562056205623C
:100A4C000562E459E4590562256205620562256276
:100A5C00666A666A466A2662666A8772666A676A48
:100A6C0087728772466A2662877287728772A7724C
:100A7C00877287728772666A2662666A466A256220
:100A8C0025622562056205620562C459256205620C
:100A9C0005622562466A666A877287728772466A41
:100AAC00256225622662266A26620562E559056280
:100ABC00266226620562C459A451A4518349834914
:100ACC00834963414339223102310231E228E23059
:100ADC00E23002312339444144414341C461C36192
:100AEC00A361835962596251625162518359A3596E
:100AFC00C459056225620562056205620562E55905
:100B0C00E559E559C559A451A551C551E559E559C2
:100B1C0005620562466A8772C87AC882A77A8772AC
:100B2C00867287728672666A666A666A4662466210
:100B3C0025622562466A25620462056205622562A9
:100B4C000562E559E5590562256225622562466A0A
:100B5C00666A466A466A466A666A666A666A676A68
:100B6C008772666A2662466A877287728772A77274
:100B7C00A77287728772676A666A666A466A2562B6
:100B8C0005620562E45905622562E4590562056255
:100B9C000562056225622662466A466AA772A772DA
:100BAC0087728772466A266A266A466AE559C45174
:100BBC0084518351835183516349634983498349E8
:100BCC0083496341433922390231E228E228023158
:100BDC00033103312339644164416441E461E461CC
:100BEC00E461E461C361A359835983598359A359BF
:100BFC00E4612562456A256225622562056205620B
:100C0C0005620562E559A451A451C551E559056227
:100C1C00056226626672A77AE882C882C77AA77ACA
:100C2C00A77AA772A7728772676A666A666A466A4B
:100C3C0046622562466A2562056225622562256246
:100C4C002562056205620562256225622562666A77
:100C5C00466A2562466A666A466A466A666A666AD1
:100C6C008772666A056226628772877287728772DC
:100C7C00A772A772877287728772666A666A256224
:100C8C0005620562E5592562466A256205620562C0
:100C9C0005620562056205620562056205622562F0
:100CAC00666A466A2662E561E559E559E559C4511B
:100CBC0063494249424963498349634963496241F3
:100CCC0042414341433923390231E230E2300331AE
:100CDC00233923394439644164416441E461E46952
:100CEC00046A046A046AE461C361C361C361C461D8
:100CFC000462456A466A456A45624562466A466AC6
:100D0C0025620562E459C451E459055A055A056235
:100D1C002562466A8672C87AE882C882C87AC77A1F
:100D2C00A77AA77AC87AA87AA7728772466A466A9F
:100D3C0025622562466A456A25622562256225621E
:100D4C002562256205620562056225622562666A76
:100D5C0026622562666A8772466A666A666A666A8F
:100D6C00A772666A05622562666A8772666A466A57
:100D7C008772A7728772676A87728772666A466A19
:100D8C00466A466A05622562466A25620562056204
:100D9C0005620562E5590562E559E559A351A4516F
:100DAC00C459C459C459C459A451A451C559E5597D
:100DBC00C459A3518351A351A351A35183496241F7
:100DCC00424122394239233922390231033123314C
:100DDC00233944394441644164416441046A046ADE
:100DEC00046A046A046AE469E461E461046204620A
:100DFC00256A456A666A666A666A666A866A866A89
:100E0C00666A2562055AE459055A055A055A05625F
:100E1C002562666AA772C77AC782C782A77AA77A41
:100E2C00A77AC87AC87AE87AA87A8772466A466A34
:100E3C0025622562466A466A256A256A266226620A
:100E4C002662466A26622562056226622562676A08
:100E5C0026622662666A8772466A466A666A466ACD
:100E6C00C87A8772E5590562466A666A676A466A95
:100E7C00666AA872A772676A87728772676A666AFF
:100E8C00676A666A256205622662256205620562EA
:100E9C000562E459E459E459E459C459C459A351BD
:100EAC00835163496349835183518351A451C4597C
:100EBC00E559C459C459C451A35183518349634959
:100ECC006341423922392239223102310331033153
:100EDC00233944416441644164416441046AE461DE
:100EEC00E469046A246A046A246A256A456A456AC4
:100EFC00456A66728672867286728672866A866A9F
:100F0C00666A4562255A045A055AE4590562056217
:100F1C00456A6672A77AA77AA67A867A667287720B
:100F2C00A77AE8820983E882C87AA772666A667231
:100F3C00466A266A466A466A266A256A26620562F7
:100F4C002662466A466A2662256225622662676ABE
:100F5C002562466A466A87722662466A666A256216
:100F6C00A7728772E459E5592562466A676A466A30
:100F7C00666AA772A7728772676A87728772666AD7
:100F8C008772676A256205622562256205620562C1
:100F9C000562E459C459C459C459C459A451A45143
:100FAC00A35183516349634963496349634983513D
:100FBC00A351A351C451A351824942496241634197
:100FCC006341434143392239223103310331033127
:100FDC00233964418449854984498449246A046AD3
:100FEC00E461046A246A256A456A6672666A666AFE
:100FFC0066728672A77286728672A772866A866A13
:10100C00666A2562256225620562045A0562256AB4
:10101C00466A8672A77AA77AA67A867A877AC77A78
:10102C00E8820983298B298B0983C87A8772877296
:10103C006772466A466A466A266A256A26620562AD
:10104C000562466A466A266205620562666A466AF7
:10105C000562466A2662666A05622562676AE45919
:10106C00676A676AC459C459C459E559266226622D
:10107C002662466A87728772666A466A466A266282
:10108C00666A666A2562056225620562E459056234
:10109C000562C459A451A451C459C459A351C4598B
:1010AC00E459E559C459A351835163494249424912
:1010BC0062496249834962496249424963416341D9
:1010CC0063416341434123392339233903312339A4
:1010DC0043398441A549A549A549A5496672456A84
:1010EC00046A046A246A256A456A8672666A666AB4
:1010FC0066728672A772877287728772A7728772FE
:10110C00666A25622562466A466A25622562456AD8
:10111C006672A77AC782A782A77AA77AE882098B18
:10112C00298B298B2A8B2A8B2A8B0983A87AC87A3C
:10113C00A77A67726672466A266A256A2662056213
:10114C00E5592662466A25620562E559676A266298
:10115C00C459466A0562466A056205628772C459BB
:10116C00466A466AA451A4518351A351E4590562BD
:10117C0005620562466A8772466A26620562E45910
:10118C000562466A25620562E559C459C459E45999
:10119C00E459A3518351A351A451A451E459C45906
:1011AC00A451A351A35183516249424901412141A8
:1011BC00624962494249214141416249C451A449B1
:1011CC00844963414341233903390231233923399B
:1011DC006441A549A549A549A549A549A77A877A96
:1011EC004672056A04620462256A87728772466ACF
:1011FC00466A666A877287728772A772A772876A55
:10120C008772666A2562666A8772466A666A667261
:10121C00C87A0983088B098B4A9349936A936A931A
:10122C004A93298B298B4A932A8BE982E882E9829B
:10123C00C982A87A6772466A466A466A2562E55987
:10124C00A451056205622562C459C459676AE559FF
:10125C00C4592562466A0562E55905622662E5595C
:10126C00C45905628351C45963494249A4518351FD
:10127C00E559C45983512662466AE459C459A451AC
:10128C00C459C459A351C459E459C459A351A351C5
:10129C00C459E459A45162496249A351A4518351E0
:1012AC006249224101412241224101410141E03880
:1012BC00014162496249624983496249C449C4494E
:1012CC008449433922392339233923394339433962
:1012DC006441A549C551C551E551065AE882C87A01
:1012EC008672456A0562E461256A6672A772677246
:1012FC00666A676A8772877287728772A77287724B
:10130C00876A666A4662666A877267728772A77AAC
:10131C00298B8B938B9BAB9BCCA3ABA38A936A93AC
:10132C006A936A93298B09830983298B4A8B2A8BAD
:10133C000983C87A6772266A056205620562E459F8
:10134C00C459056205620562A451A4512662C459B0
:10135C00A451056226620562C459E559E559E5595F
:10136C008351E559A45183516349424163498349EF
:10137C00A451C451A451E5590562C459A3518351D8
:10138C008351835142498351A451A351A351835199
:10139C00A351C459A35162496249A35142496249BC
:1013AC00634942490141224142490141014101390C
:1013BC0021416249624962498349834983496341B6
:1013CC0043412239223923396441644184416441C7
:1013DC008549C551E651E659065A265A098B0883A8
:1013EC00A87A6672256A05620562466AA772A772B8
:1013FC00877287728772A872A872A872A872877295
:10140C00676A676A676A676A877287726772E98256
:10141C008B9BCCA3CCA3ECA3ECA3CCA3CB9B8A93AC
:10142C008A938A934A8B0983E982098B0983E9821F
:10143C00C87A8772266A0562E461C459C459C459D2
:10144C00A45105620562E559C459C459E559A45122
:10145C008351E459E559A451835183518349A451D3
:10146C00224163496349424183496349424162498C
:10147C004241A351A4518349C451C451835163497E
:10148C008351634942496249A351C4598351634909
:10149C008351A351835162496249835162498351FB
:1014AC00A35183514249424963496249424921410E
:1014BC004249634983518351A451C451C451844955
:1014CC00434123392339434164418449A549A54902
:1014DC00C651E651065A276247624762298B298B0F
:1014EC00E8828772466A25622562466A8772A7720D
:1014FC00C87AA872A772C87AC87AC87AA872877292
:10150C00676A676A87728772877287728772098BBC
:10151C00CC9B0DAC2DAC0DAC0CACECA3CB9BAB9B1A
:10152C008A934A934A8B2A8BE982A87A667246720E
:10153C00266A0562E561C459C459A459C459A45119
:10154C00A451C459E559E559E459E559C459835195
:10155C0063498351835142492241224142416349AB
:10156C0001390239434122416349434943496349A3
:10157C0042418349C451A451C451E559E459E45939
:10158C00E459C459A3518351A351C459A451835153
:10159C008351A451C459A35183518351C459A351AC
:1015AC00A451C459A3518351A351C45983518349A4
:1015BC008351A451A451C459E5590562065AA44952
:1015CC00434143414341434164418549C651E6513E
:1015DC00065A275A276247626762676A298B298BEA
:1015EC00E882A77A6672456A2562466A466A8772FD
:1015FC00C87AA872A772C87AC87AC87AA872877291
:10160C0067728772A87AA77A8772A77A8772C8825C
:10161C004A8BECA34EB46EB44EB42DAC0CA4CB9B45
:10162C008A934A8B298B0983A77A466A256A066AAC
:10163C000562E561E561C459A4518351C459A351B4
:10164C00A351C459C459C459E459E459A351835101
:10165C0062496249624922410141E13842414241B9
:10166C002241224163414241E138C030C130C03097
:10167C00C030C03022394241E13822398351A35164
:10168C00C459C459C4598351A351C459E459C459B8
:10169C00E459056205620562E559E559E459C459F6
:1016AC00C459E459C459C459C459C459C459C4512E
:1016BC00C459C459C451C459C559C559A44943390D
:1016CC0002392239233944418449A549065A075A1B
:1016DC00476247624762476247626762298B298B80
:1016EC000883A77A8672666A4562256245628772AC
:1016FC00C87AC87AA772C87AC87AC87A87726772A9
:10170C008772A77AA77AA77AC87AC77AA77AA77AAC
:10171C00A77A498B2DACAFBC8EBC4EB44DAC2CA46F
:10172C00EC9B8A930983877A4672266A266A266A14
:10173C00066A0562E561E459C459A45183516349B1
:10174C00A351A351C459C459E459E4598351634971
:10175C0063498351634942492141014163414241FB
:10176C002241023922392241A0308028C130C030B8
:10177C00E130A03002394341C130E130C038014181
:10178C00214142496249424962498351A351A451C2
:10179C00C459E5590562256225622562C459056262
:1017AC0025620562E55905620562C459E459C459BC
:1017BC00C451A45183516349634943490239E1300F
:1017CC00C128E23023396441A549E65927624862B1
:1017DC00686A48624762476247624762498B498B35
:1017EC000883C77AA77A866A256204624562666AAC
:1017FC00A772C772C77AC87AC87AC77A6672666ADD
:10180C00A772C87AC87AE882E882E882E882E8821D
:10181C00A77AE882CB9B8FBCCFBCAFBC8EB48EB406
:10182C002DACAB9B0883877246724672266A266A79
:10183C00266A05620562E559C459C4598351634946
:10184C0083518351C459A351C459C45983518351F1
:10185C0083518351835163496249424963494341EE
:10186C00E1380239E13022390239C130013901390C
:10187C000139023943416349434122410141424903
:10188C006249424942492141E138014121414249E1
:10189C008351A351A451C459E459E559E459256223
:1018AC00666A666A0562E459E459E459C459A3515D
:1018BC0083518451434943492341E238E130C128E3
:1018CC00C128E23023398449E651275A48624862DC
:1018DC00486247624762476247622662498B498B7E
:1018EC000883C77AC77A86722562045A25624562D4
:1018FC00666A8672A772C77AC772A7728672667298
:10190C00C87AE882E8820983498B0883E882298BAC
:10191C00C77A8672498B4DACCFBCEFC48EB4AEB4D3
:10192C004DAC8A93E882C87A877A4672466A266AF0
:10193C00266A0562E561E559C459C459E459A351B5
:10194C00A3518351A3518351A3518351C459C459F9
:10195C00A351835183518351624962498449A449FB
:10196C00023964490239434143410239023902398F
:10197C00C130223963416341A44984494249A4518D
:10198C00C459C459C459835142492241E1382141B7
:10199C00424962496349A351C459E459056205623D
:1019AC00466A8772056262498351E55983518349BE
:1019BC0083498349434943492341E238E130E130CB
:1019CC00E130E2304341A549065A48624862486218
:1019DC002762275A2762476247622662288B288B28
:1019EC00288B0783C7826572246A246A456A656AF4
:1019FC00866A666A866AA772A772A772A7728772CE
:101A0C00C87A0983298B499369932893289308935F
:101A1C00E78A8682E78A8A9B8EBCEFCCAEBCAEBCD2
:101A2C002DAC0883498BC882A77AA77A8772466A3D
:101A3C00266A256A256A0562E461C459C459C459E9
:101A4C00A451C459C4598351424962498351C45960
:101A5C00C45983514249624962494249835163499D
:101A6C00624942492141214121414249424942496D
:101A7C00214121414249624962498351A351A451F8
:101A8C000562256205620562C459A35121412241B8
:101A9C002141624941498251C351E459A45905621B
:101AAC00466A466A0562A4518351C4596351635115
:101ABC00625183518349634942412239E130C1303B
:101ACC00C1302239A449065A2762476247624762ED
:101ADC0027622762276227622762476249934993EC
:101AEC00288B088BE7828672456A256A256A666AA6
:101AFC008672866A866AA772A772876AA772C87A84
:101B0C000983498B6A938A9B8A9B699B699BE78AA9
:101B1C00C78AC682088B28930CACEFCC10C5CFBCFF
:101B2C00ECA3E88209830883E882A77A877266723D
:101B3C00466A266A25620562E561E459E559E5596C
:101B4C00E459C459E459A351624962498351A351E0
:101B5C00A3518351624962496249424962494249EF
:101B6C004249214101412141224142496249624994
:101B7C00624962498351835162498351C459C459A2
:101B8C0005622662266226622562E559A351A3519D
:101B9C002141214162498251C35982516351E5610E
:101BAC00266A0562056226620562E55983518251F7
:101BBC008351A351A3516349424122410139E13080
:101BCC00E13022398449E65927624762276227624D
:101BDC002762276227622762476A686A8A9B8A9B08
:101BEC004993498B088BC77A6672456A456A867237
:101BFC00867286728772A772A772876AA77A498BD8
:101C0C008B93AB9BAA9B8A9B6A9B699B699BE78A7C
:101C1C00E792E78A289308938A9BAEC410C5F0C458
:101C2C004DAC498BE8820983298BE882A87A8772AC
:101C3C00677266726672466A466A266A0562256231
:101C4C00E559E459E459E459A35162496349835174
:101C5C0083518351634963496249624962496249CC
:101C6C0042494249224142494249624962498351AF
:101C7C00835183518351835163498351E459E5590D
:101C8C002662466A466A666A676A466AE55905626A
:101C9C008351414982516249E45982516351A4599B
:101CAC00E559E559E559E559E559E459635162514E
:101CBC008351C459C4598349634143412239023188
:101CCC00023943398449C551065A2762275A27627B
:101CDC002762276247624762686A886ACB9BAB9B24
:101CEC008A936A93498B0883A77A86728772A77A3C
:101CFC00A77267728772A772A872A872C87AAB9B18
:101D0C002DAC0CACCBA3AA9B699B699B499B2893DC
:101D1C00489B088B4893699B499B2CB431CD10C5CB
:101D2C006EB4AB9BA77AA77AA77A877287728772F1
:101D3C008772A87AC87AA87AA7728772666A466A86
:101D4C000562056205620562C45983518351835152
:101D5C0083518351835183518351835183516349FF
:101D6C006249624942494249424942496249835166
:101D7C0063496249835183518351C459E4590562C3
:101D8C002662676A676A676A8772666A2562466A4C
:101D9C00A3518251A3518249E459A35162518351F9
:101DAC00A459C459A3518351A351A35162516251F7
:101DBC008351C459C459834963416341223902395F
:101DCC00223943418449A551E659065A065A2762DD
:101DDC0027624762686A886AA972A972ECA3ECA3AD
:101DEC00CB9BAB9B8A93298BE882C87AC87AC87A3A
:101DFC00A87A87728772A772A87AC87A298B0CACDA
:101E0C008EBC2DB4EBABAAA38AA3AAA3499B499B76
:101E1C00499B0893699BABA3499BCBA3AEBC2CAC51
:101E2C006A93298B8672A77A877266728772877219
:101E3C008772C87AE87AC87AC87AA872C87A877220
:101E4C0025622562466A0562C459C459C459A35116
:101E5C008351A351A351A35183518351835163499E
:101E6C00624962496249624942492241624983514D
:101E7C006249624963498351A351E4590562266260
:101E8C00466A676A676A676AA87287728772666A47
:101E9C00A351C459C459C351C351825142498351AE
:101EAC00C45983516349A451C45962498251625146
:101EBC008351C459C45183494241424102390239C8
:101ECC002239434164498449C551E659065A27626F
:101EDC004762686A686A886AA972886A2DAC2DACF8
:101EEC000DA4ECA3AB9B6A93298B298BE982E88226
:101EFC00C87AA87AA77AA87AE882298BECAB8EBC30
:101F0C00AEBC4DB4CBABAAA3AAA3AAA38AA3499BEC
:101F1C0028932893899BCBA36A9BABA38A9B298B81
:101F2C00E882298B098B4A8B498B298BE882C87AEA
:101F3C00C87AC87AE87AC87AC87AC87AC87A676AD6
:101F4C0025622562466A0562E459E459E459C4598C
:101F5C00C459A451A451A351A351A35183518351EA
:101F6C006249634963496349624942496249634929
:101F7C0062496249634962498351C4592562666A60
:101F8C00466A676A666A666AC87AC87A8772466AF7
:101F9C00E5592562C459C351A351C351835183518F
:101FAC00A359A4518351A451A351424942496249B6
:101FBC008251A351C459A351634942410239023998
:101FCC002239434164418449A551E659E6592762B7
:101FDC004762686A686A886A886A886A4DAC6EACBF
:101FEC004DAC2DACECA3AB9B8A936B93298BE98204
:101FFC00C87AC87AC87AE8826A93ECA3AEC4AEC435
:10200C00AEC44DB40BACEBABCBABAAA3AAA369A3E8
:10201C00499B899B8A9BCBA3AAA3CBA36A936A9364
:10202C00AA9BECA3AB9BAB9B8B938A936A8B4A8B3F
:10203C00298309830983E97AE87AE87AC87A87726E
:10204C0025620562466A256205620562E459E45917
:10205C00E459C459C459C459C459C459A3518351DE
:10206C008351835183518351835163496349835114
:10207C00624962496249424942498351E559466A7B
:10208C00466A8772666A466AE87AC87A676A25621F
:10209C00666A466AA351A351E4590462C35962515A
:1020AC00A3590562C45162496349624921494249B5
:1020BC008251A351E459C451834942410239023936
:1020CC000239234143416449A551C551E659276260
:1020DC004862686A686A886A886A686A6DB46EB4AD
:1020EC004DAC4DAC2DACECA3CB9BCC9B4A8B09835C
:1020FC00E882E8820883298BECA3AFBCEFCCAEC49A
:10210C00AEC46DBC4CB44CB42CB4CAAB89A3AAA35A
:10211C008AA3AAA38AA3EBABEBABABA3AB9BCBA3DE
:10212C000CA40CA4CCA3CB9BAB9B8B938B936A93EF
:10213C006A8B4A8B4A8B2983098309830983E87A42
:10214C00666A25622662466A0562E559E459E459D5
:10215C00E459C459C459C459C459C459C459A35194
:10216C00835183518351A351A35183518351835183
:10217C00624942494249424942496349A351256255
:10218C00466A8772666A466AC87AC87AA772056216
:10219C00A7722562A351C459045AE4596251835160
:1021AC0005620562835162498351835141498251D1
:1021BC00A351C459E459E4598349223922410239C3
:1021CC0002392341234164498449C551065A276287
:1021DC00686A686A686A886A886A686A6DB4AFBC3B
:1021EC008EB44DAC2DAC2DACECA3AB9B4A8B4A8B77
:1021FC00298B498BAB9B4DAC8EBCCFC4CEC4EFCCE2
:10220C00EFCCCEC4AEC48DBC4CBC2CB40BB4AAA3C6
:10221C008AA3AAA3AAA3CBABCBABCBA3EBA32CAC2B
:10222C004DB44DAC2DAC0CA4ECA3ECA3CB9BAB9B55
:10223C00AB938B938A934A8B498B2A834A8B098362
:10224C00877225620562256225622562C459E459AC
:10225C00E459E459E4590562E559C459C459C459BF
:10226C00C459A45183518351C459C459A3516349CE
:10227C008351624942496249224142496249C459E7
:10228C00466A666A8772A872A772C87A8772877262
:10229C00C87AE4598351E459C35182518251C459CB
:1022AC00E461E459E459A351835183516251825141
:1022BC0083518351E459E55963490239E238E238D4
:1022CC0002390239234123416449A551E659276259
:1022DC0048624762686A686A676A686A8EB4AEBCAC
:1022EC008EB46EB44DAC0CA4AB9B6A936A8B4A8BC8
:1022FC00AB9B4DACCFBCEFC40FCD0FCD0FCD0FCDE5
:10230C000FCDEFCCEFCCCECCAEC48DC44CBCEBAB74
:10231C00EBABEBABEBAB0BAC0BACEBAB0CAC4DB432
:10232C006EB46DB44DB44DAC4DACECA3CB9BCB9B10
:10233C00AB9BAB938A936A8B4A8B6A8B4A8B2983B0
:10234C00C87A466A056225622662666A056205627B
:10235C000562E459056205620562E459C459C45921
:10236C00C459C459A3518351A351C459A351835186
:10237C00A351835183518351214121412141A351C7
:10238C002562666A8772A7728772A8728772A772B3
:10239C00A7722562A351A35183514149A351E4591A
:1023AC00E461E459E459C451A351C3598351825196
:1023BC008351A351E559C45142410239E238E23804
:1023CC00E23802390239033944418549C551075A6B
:1023DC002762276247624762476A686A6DB48EB4A7
:1023EC006DB42DAC0CA4AB936A936A936A93498B2E
:1023FC00AB9BAFBC51D530CD0FCD30CD30D530D51A
:10240C0010D510D510D50FD5EFCCCEC48DBC4CB497
:10241C004CB42CB40CB42CB44DB40CB42CB46DB46E
:10242C008EBCAEBC6DB46DB44DACAA9BAB9BCB9BC0
:10243C00CB9BAB9B8A93498B4983498B4A8B4A8BA9
:10244C00E87A666A25620562466AA772666A466A17
:10245C0025620462056205620562046225620562FA
:10246C0005620562E459C459C459C459C459A351ED
:10247C00A351A351A351835122410141004142492F
:10248C00E45926628772A7728772A872A872A77223
:10249C00676A466AC4596249A3518351E45904627C
:1024AC000462E459E459C451A351C459C35983512A
:1024BC00A351C459E559A4510239E138E238E2304C
:1024CC00E23802390239023943418449A551E659AF
:1024DC002762276247624762476A686A8EB4AEBC5D
:1024EC006DB40CA4AB936A8B6A8B8B93AB9B6A9386
:1024FC00AB9B8EB430CD30CD2FCD50D550D530D503
:10250C0030D550D550D530D510D5EFCCAEC48DBC10
:10251C008DBC6DBC4CB44CB46DBCEBAB0CAC6DBC9D
:10252C008EBCAEBC8EBC2CAC2CACEBA30CA42CACDB
:10253C004DAC2CACCB9B6A93498B498B4A8B4A8B09
:10254C000983A772466A2562466AC77AC87A867278
:10255C002562056205622562256225622662256276
:10256C0005620562E459E459E459C459E559C45962
:10257C00A451A351A351A35162492141E0382141F7
:10258C00A3510562666A87728772C87AC87AA87284
:10259C008772466AC459A351C459E459046205624E
:1025AC0005620562E459C451A351C459C459A359D5
:1025BC00A359C459E5598451E138C130E130E130B7
:1025CC00E230E238E238023943418449A551E659F8
:1025DC0027622762476A676A686A88724DAC6EB474
:1025EC004DACECA3CC9BAC9B8B938B936B93298BBB
:1025FC006A930CACCFC430CD50D550D550D551D5F5
:10260C0071DD71DD71DD50D530D530D5EFCCCEC458
:10261C00CEC4AEC48DBC4CB44DBC899B49938EBC0E
:10262C006DBC4CB48DBC6DB46DB4AEBC6DB48EB41D
:10263C008EB44DACEBA38A93498B6A8B4A8B6A8B15
:10264C002983E87A8772466A666AC77AC87A87727B
:10265C00466A456A456A2562466A466A2662466A41
:10266C00466A0562056226622562C459E559E45939
:10267C00C459C459C459C4598351424900412141D8
:10268C00A351E459466A87728772C87AC87AA772CE
:10269C00C87A466AE4590462E45905620562256AFF
:1026AC00256A25620562E559C459E459C459C359D0
:1026BC00C459C459C4598349E138A028C130C13028
:1026CC00E130E230E238033943416449A551E6591F
:1026DC0027622762676A6872687288724DB44EB45A
:1026EC004DAC2DAC2DACEDA36B930A83C87AC87A94
:1026FC00298BCB9BAEBC30CD50D530D551D571DDAF
:10270C0091DD92DD91DD51DD50D530D530D50FCD39
:10271C000FCDCFCCAEC44DBC4DBC28938682AEC47D
:10272C00AEC42CB4AEC4CEC4CEC4CEC4AEBC8DBC70
:10273C006DB42CA4AB9B6993498B498B6A8B8A93A0
:10274C004A8B0983C87AA7728772C77AE87AC77AE4
:10275C00A7728772666A456A2562466A666A666A05
:10276C00666A26622562466A2562A451E4590562AE
:10277C00E45905620562E459C4596349214162492F
:10278C00A351E459466AA7728772C87AA8728772F5
:10279C00C87A2562C45925620562466A466A667221
:1027AC00666A466A2662055AE459E459C459C45902
:1027BC00E459C459C4516349C1308028C128C1307F
:1027CC00C130E230E238033943416449A551E6593E
:1027DC002762276A686A687288728872AFBC8FBC7D
:1027EC004EB40DA4CC9B4B8BC97A6772A87AE98244
:1027FC004A8BCB9B8EBC30CD71D550D551D571D574
:10280C0071DD92DD92DD91DD71D551D551D530D58B
:10281C0030D5CFCCAEC46DBCAEC489A3A682AEC439
:10282C00CEC48DBCEFCCEFCCEFCCCEC4EEC4AEBCE2
:10283C008DB42CACEB9B8A936A936A938B93AB937A
:10284C006A8B0983E87AC87AA772C77A0883E87A10
:10285C00C87AC87A8772466A466A87728772666ACD
:10286C00466A2562056205620562C459C45905624F
:10287C00056225620562E459E459A3516249624933
:10288C00A351C359466AC87AA872C87AC87A8772A3
:10289C0087720562C4592562666A8772466A8772B6
:1028AC00666A0562055A055AE559E559E561E46120
:1028BC00E561E559E5596349C130A028C128C1300B
:1028CC00E130E230E238233943416449A551E659FD
:1028DC002762476A6872887268728872ECA3CCA30C
:1028EC008B932A8BC87A476A266A6772E9820983B6
:1028FC004A8BAB9B4DB4EFCC51D551D571DD71D515
:10290C0071DDB2DDB2E5B2DD91DD71DD51D530D5D1
:10291C000FCDAEC48DBC6DBC0FD50BB44893AEC4FB
:10292C00AEC4CEC40FCDEEC42FCD0FCDEFC4CEBCF4
:10293C008DB44DAC0CA4CB9B8A936A93AB93AB93A5
:10294C006A8B0983C87AC87AC87AC87AE87AC87A4E
:10295C00C87AC87A8772666AA7720983C87A666A67
:10296C00466A466A466A466A466A666AE459256257
:10297C00056225620562E4590562E459825182516F
:10298C00835183512562E87AE87AC87AC87AC87A82
:10299C008772466A05620562666A666A0562466AFD
:1029AC000562C459C459055A05620562266A056256
:1029BC000562266206628449C130C130C130E13003
:1029CC00E230E2300239234144416449A551E661C9
:1029DC002762476A687288728872887288728872F5
:1029EC008872676A276A2662476A8872A872877239
:1029FC00C87A298BCB9BAEBC91D591DD71DD71DD95
:102A0C0072DD92E592E592E592DD92E551DD51DDC4
:102A1C00EFCC8DC48DC4ADC4ADC427930793AEC4A5
:102A2C006DBCAEC430D5EFCC30D510CD0FCDCFC4EE
:102A3C00AEBC6DB42CACEBA3CA9BCAA3CBA3AB9B13
:102A4C006A93288BE882E782C77AA77AC77AE882EA
:102A5C00E882A77A6672A77A0883E9828672867200
:102A6C00867266726672867287726672C359256246
:102A7C00256A2562256204620462C359835183511D
:102A8C00C35104628672C77AE77AC77AC77AC87A62
:102A9C008772266AE561266A6772266A256A456A24
:102AAC00C45983510562466A2562456A05622562EE
:102ABC00466A666A266284490239E128E238C130E6
:102ACC00C2300239023903394441A551C551E65986
:102ADC0027626872897289728972A97A476A6772E9
:102AEC006872676A476A2662476A676A67726672C3
:102AFC008772A77A288B4CAC50D591DD92DD92DD94
:102B0C0092DD92E592E592DD92E5B2E591E530D564
:102B1C000FD5EECCEECC6CC4A9A3E692899BAEC4C7
:102B2C006DBCAEC430D50FCD50D530D530CDEFCC3B
:102B3C00AEBC8DBC4CB42CAC0CAC2CAC0CACCB9B50
:102B4C006993288BE882E8820883298B0883E882C2
:102B5C00E882C87AC87AE882E87AC77AE87AE882A2
:102B6C00C77AA77A667266728672A7720462256A41
:102B7C00046204620462046225620462C359E4596B
:102B8C000462256A656AA672E77A0883E87AC87ACD
:102B9C008772466A266A667287726672256A056251
:102BAC00A3518251E559266225622562466A466A1E
:102BBC00666A666A055A6341E130A128C130C130AA
:102BCC00E2380339234123416449C551E659065A79
:102BDC002762686A887288728972A97A266A476A3B
:102BEC006772676A476A2662466A476A266A466A55
:102BFC0066726672C77AEBA330CDB2DDB2DDB2DDA0
:102C0C00B2DDB2DDB2DD92E5B2E5B2E571DD0FD534
:102C1C008EC4EBB34CBC6DC4279B07932CB4AEC4D1
:102C2C006DBCAEC430D530D551D571DD50D510CD7D
:102C3C00CEC4AEBC8DBC6DB46DB46DB44DB4EBA351
:102C4C008A9B6993288B08830883298B298B298B72
:102C5C00088309834A8B4A8B0983C87A498B298B51
:102C6C000883C77AA7728672A77AC87A256A456ADA
:102C7C00256A456A456A2562256A0462C45904625C
:102C8C00256A256A456AA672E78208830883E8826A
:102C9C00A87AA87AA87A877287728772456A0462C2
:102CAC00A359C459466A87728772A7728672667274
:102CBC00877287724662A44923390231A128C13038
:102CCC00E2300239033923416449A551E659065AC9
:102CDC00476A686A887288728972A97A466A466AF3
:102CEC00476A476A26622662266A466A0562466A0F
:102CFC0066728772E882AB9BCFC492DDB2DDB2DD27
:102D0C00B2DDB2DDB2DDB2E5B2E591DD50DD0FD55D
:102D1C00EAB3A68A0793AAABC69248A3AEC4CEC4A4
:102D2C008DC48EC40FCD50D571DD51D551D510CD7C
:102D3C00CFC4AEBC8EBC8DBC8DBC8DBC6DB42CAC6C
:102D4C00EBA3CBA38A9B4993288B298B6A936A9319
:102D5C006A938A93CB9B8B93298B09836A8B498BC0
:102D6C000883E87AE88208830883C77A666A8672E1
:102D7C0066726672666A456A256AE461E461056A90
:102D8C00256A246A6572A67AC77AA77AE882E882ED
:102D9C00C87AA87AA87A8772466A6672256AE45954
:102DAC00A35105628772A872A772C87AA77287723C
:102DBC008772676A055A6341E130A128A128C128AE
:102DCC00E2300239023923416449A551A551E65933
:102DDC00476A8872A97289728972A97A676A676A66
:102DEC00476A466A26622662266A466A266A266A06
:102DFC00466AA77AE88269934DB451CDB2D5D2DD3B
:102E0C00B2DDB2DDB2DDB2DD91DD71DD71E5CECCCE
:102E1C00489B8582A68AA58A448289ABEFCCEFCCED
:102E2C00AEC46DBCCEC430D550D530D530D50FCD59
:102E3C00AEC48DBC8DBC8EBC8DBC6DB44CB44CB4CE
:102E4C002CACEBA3CBA3CA9BAA9B8A938A9BCB9B50
:102E5C00EBA3ECA3ECA38A93498B498B498B498B4D
:102E6C00298B0883298B6A93298BC77A8672C77A38
:102E7C00A7726672666A666A66722562056A457230
:102E8C00657245728572C782C782A67AC882298B01
:102E9C00098BC882C87A877266726672256AE45991
:102EAC00C4592662A872A872A772A87A8772667231
:102EBC00666A466AC551023980286020A128C1285B
:102ECC00E23002392339434164416449A551E65942
:102EDC00476A8872A972A9728872A97A466A466A88
:102EEC00466A466A466A466A266A266A466A2662BE
:102EFC00256A6672C77A0883ECA311CDD2D5D2DDD0
:102F0C00D2DDB1DDB1DDB2E5B1E571DD2FDD2BBC7C
:102F1C00E692E69248A3289B48A32BBC0FCD30D554
:102F2C00CFC46DBC8DBCEFCC0FCD0FCD0FCDCFC4AE
:102F3C00AEC48DBC8DBCAEBCAEBC8DBC4CB44CB464
:102F4C000CACCAA3CA9BEBA3EBA3CBA3AA9BCB9BB6
:102F5C00ECA30CA4EB9B8A936A938A93698B8A9358
:102F6C006A93498B498B8A93298BC77AA77AC77A3C
:102F7C00A7728672867286728672456A056A457277
:102F8C006672867AA67AE782E78AE782C7824993D5
:102F9C004A930983C882C87AA77A8772256AE46142
:102FAC00E5618772E87AC87AC87AC87A87728772BC
:102FBC008772676AE5512239A128A0208020A128B8
:102FCC00C22802392339233943416449E65927621F
:102FDC00686A887288728872A872A97A6672666A40
:102FEC00466A466A466A466A466A266A466A266A95
:102FFC00256266728772C77A8B9BCFBCB1D5D2DD46
:10300C00D2DDB1DD91DDB1E570DD2FDD6CC469A3DE
:10301C00079348A30BBC6CC48DCC8DCC0FCD71DD4C
:10302C0030D50FCDEFCCCEC4EECCEEC4CEC4CEC4D6
:10303C00AEC4AEC4CEC4CFC4CEC4CEC48DBC6DB4ED
:10304C000BACCAA3AA9BCAA3EBA3EBA3AA9BCB9BD7
:10305C00EBA3EBA3CB9BAB9BAB9BAB9BAB9BAA9B85
:10306C008A938A938A938A93298BE882E882C77A17
:10307C008672A77AC77AA77A8672667225724572AB
:10308C00667AC782289349934893088BC782098B29
:10309C0049930983C87AC882E882A77A0562C45921
:1030AC0005628772C87AC87AC87AC87AC87AA87A48
:1030BC00A772466A8449C130602040186020802085
:1030CC00A128E230023102394341A5514762686AB6
:1030DC0088728872A872A872A97AC97A8772677284
:1030EC00666A466A466A466A466A266A466A466A54
:1030FC00466A667287726772098B0DAC50D591DD8A
:10310C0091DD91DD71DD70DD2FDDCDCCA9AB079BA1
:10311C0089AB0BB46CC48DCCAECC8DC430D5D2E5A0
:10312C00B2E5B2E591DD0FCDEFCCEFCCCEC4CEC481
:10313C00CEC4CEC4EFCC0FCD0FCDEFCCCEC48DBC56
:10314C004CB40BACEBA3EBA30BA40BACEBA3CA9B47
:10315C00CB9BEBA3CB9BCB9BEBA3AA9B0CA4AB9BDA
:10316C006A938A93AB9B8A93498B08838A930883CF
:10317C008672A77AC77A86728672A7728682867AD8
:10318C00A6820893AAA3CAA3699BE78A088B298BFA
:10319C006A934A8B0983098B298BC87A466A056224
:1031AC00466AA87AC87AC87AC87AC87AA772877227
:1031BC00677225626349A028402040188020812036
:1031CC00A128C228E230E2306449065A686A887243
:1031DC00A972A97AA872A97AC97AC97A6672667232
:1031EC006672666A466A466A466A466A466A466A0B
:1031FC00466A466A466A877A098B8B938EC4F0CCF2
:10320C0051D530DD2FDD0FD58DCCEAB368A347A3A4
:10321C00EABBADCC8DC48DC48DC40CBC71DDD3E5C3
:10322C0013EEF3EDF3EDF2E591DD2FCD0FCD50D58F
:10323C0050D52FD530D550D530D5EFCCEFCCCEC422
:10324C008DBC4CB42CAC4CB46DB4AEBC6DB4EBA317
:10325C000CAC4DAC0CA40BA42CAC0BA42DAC0CA442
:10326C00ECA30CA4ECA3AB9B6A936993498B0883E6
:10327C00A77AE882E882A77AC77AC77AA782A78258
:10328C00078B2893699B899BAAA38A9B6A936A9351
:10329C004993498BE882C882298BE8826672256A39
:1032AC00A77AE9820983C87AE87AC87AA77AA77AD2
:1032BC0025628351E1386028802880286020812095
:1032CC0081208128A1280339C5514762886AA972D7
:1032DC00C97AC97AA872A97AE97A0A83667266727F
:1032EC006672666A466A466A466A466A266A466A2A
:1032FC00466A266A266A6672C87A2A8BABAB8EC47B
:10330C0010D5EFD48DCC4CC4CAB327A347A388AB3C
:10331C002BBCCDCCEED4AEC48EC4CECC92DDF3EDB2
:10332C0014EE13EE13EE13EED2E591DD2FCD50D546
:10333C0070DD70DD50D550D530D52FD5CFC4CEC46F
:10334C00CEC4AEC4AEBCAEBCCEC4EFC48DBC0BAC54
:10335C000BA44CAC2CAC4CAC4DAC2CAC2CAC2CAC69
:10336C002CAC2CACECA3CB9BAA9BAB9B6993298B71
:10337C00E88208830883E882E882E882E88A089376
:10338C004993699B699BAA9BAAA3AA9BCBA38B9BE2
:10339C006A936A93298B298B09838772667266728A
:1033AC00C87A0983E982C87A09830983C87A877243
:1033BC000562A4512241C130A028602060208020E9
:1033CC00A128C13002398449065A686A8872A972E8
:1033DC00C97AC97AC97AE97AEA820A83667266720C
:1033EC0066726672666A466A466A466A466A466AE1
:1033FC00466A466A466A4772A87AE9824A9B0DB4C5
:10340C008ECC2DBCCAB3CAB3CAB3A9B368AB0ABCC1
:10341C008CCCCED4CECC4CBC6DBC71DDF3E534EE93
:10342C0034F613EE33EE33EEF2EDD2E570D550D523
:10343C0050D570DD50D52FD50FCD0FCDEFCC0FCD96
:10344C000FCD0FCD0FCD0FCD0FCD0FCDAEBC4CACE6
:10345C002CAC4CAC4CAC6DB48EB46DB44DAC4DAC22
:10346C002CAC0CA4EBA3CB9BCB9BEBA34993298B50
:10347C00298B288B088B088BE88208834993699BDE
:10348C008A9BAAA38A9BAAA3CAA3CBA3AA9BAB9BE6
:10349C00ECA38B9B098BE882A77A667286726672A4
:1034AC00C87AC87A0983C87AA87A466A256A256ACE
:1034BC00E461C4596249C130A128A128C128C1289E
:1034CC00E23023398449E6594762686AA972A972C5
:1034DC00A97AC97AE97A0A830A830A8366726672C0
:1034EC00667266726672666A666A466A6672677247
:1034FC0067726772477267728772C87A2A930DB4C3
:10350C00AFCCAECC4DC40BBCEABBC9B3C9B38CCCED
:10351C00EDD4ADCC4CBCCAAB6DBCD2E514EE34EEE4
:10352C0034EE13EE13EE13EEF2E5D2E591DD50D549
:10353C000FCD0FCD2FCD0FCD0FCDEFCC30D530D54E
:10354C0030D530D530CD10CD0FCD10CDCFC4AEBCD5
:10355C00AEBC8DB44CB46DB48DBC8DB48EB48EB485
:10356C004DAC0CA4EBA3EBA30CA4EBA36993499374
:10357C006A93298B298B4993288B498B8A9B8A9B2D
:10358C00CAA3CAA3AA9BAA9BCAA3EBA3CBA3AB9B1C
:10359C000CA4AC9B4A8B298BC77A66726672C87A6C
:1035AC00298BC87A867225622562E461E461046223
:1035BC000462E5598349E130E130E23002310239ED
:1035CC0023398449C6510762476A686AA972A97A85
:1035DC00A97AC97AE97AE97AE97AE97A677267723B
:1035EC006772677267726672666A666A677267721A
:1035FC0067726772477247728772A87A098BCCA37D
:10360C00CFC430D5EFD46DC42BBC0ABC6CCCCDD49C
:10361C00EED46CC4EAAB0BAC0FCD13EE14EE34EE5F
:10362C0034EE34EE33EE13EEF2EDF2E591DD70DDB7
:10363C002FCDEECCEECC2FD550D550D571DD71DD24
:10364C0050D550D530D530D530D530CD0FCDEFC489
:10365C00EFC4AEBC8DBC8DBCAEBCAEBCCFBCAEBCE6
:10366C006DB44DAC4DAC4DAC0CACEBA38A936993E3
:10367C00AA9B699349938A936A938A9BCBA3CBA306
:10368C00EBA3EBA3CAA3CA9BEAA3EBA3EBA3CB9B31
:10369C000DA4AB9B0983E8828772466AA77AE882FD
:1036AC00098366722562E45905620562E461E4618E
:1036BC00E459E45983490139E130E13002390239E6
:1036CC0043418449E6590762476A686AA972A97A34
:1036DC00A97AC97AA97AC97AE97AE97A677287727A
:1036EC00877267726772677266726672666A666AFA
:1036FC006672677267728772A87AE9824A8BECA34A
:10370C00CFC451D530D5ADCCADCCCDD40EDDEDD4B0
:10371C00ACCC2BBCEAABADC4B1E513EE14EE34EE7D
:10372C0034EE34EE34EE13EED2E5D1E5B1E5B1DD95
:10373C0070DD2FCDEECC2FD550D570DD71DD71DD68
:10374C0071DD50D550D530D530CD10CD0FCDEFC467
:10375C00CEC4CEBCCEC4EFC4CEC4CEBCCFBCCEBCCB
:10376C00AEBC8EB48EB46DB42CACEBA3AA9BAA9B4E
:10377C00AB9B8A9B6A9B8A9BAB9BCBA3EBA3EBA3D8
:10378C000BA40BAC0BA4EBA30BA40BA4CB9BAB9B80
:10379C00CC9B6A93A77A256A256A456A456A667244
:1037AC00466AE461456A666A6672456A256A456AD4
:1037BC0025620562A351224122392239223923394B
:1037CC0043418551E6590662276A68728872A97A64
:1037DC00A97AA97AC97AC97AE97A0A7B6772877257
:1037EC00877287728772677267726772666A666AB7
:1037FC00667267728772887AC87AE9824A8BEC9B08
:10380C00CFBC51D571DD2FD50ED50ED54FDDEDD4F6
:10381C006BC40AB42BBC2FD5D2E5F3ED34EE34F6E1
:10382C0034EE34EE33EE13EED2E5F2E5D1E5B1E54C
:10383C0090DD70DD4FD52FD50FCD0FCD30D530D5D8
:10384C0030D530D530D530D530D530D530CD0FCD75
:10385C00EFC4EFC40FC5EFC4EFC4EFC4CFBCCFBCF3
:10386C00CFBCCEBCAEBC6EB44DAC0CACEBA3EBA3DE
:10387C00CBA3CBA3CBA3ABA3ECA30CAC0CACEBA317
:10388C000BAC2CAC2BAC0BA40BA40BA4ECA36A932D
:10389C00E882E882A87A86726672256AC359456AFC
:1038AC008672456A66728672A77AC77A8672A77A1A
:1038BC008772466AC4596349834984412341234131
:1038CC0043418449C559E661076A476A6872887240
:1038DC00A97AA97AC97AC97AE97AEA7A6772677297
:1038EC008772877287728772877287726772667245
:1038FC0066726672666A477267726772876AE97A7D
:10390C00AB936EB40FCD70D570DD4FDD2EDDCDD405
:10391C004BBC0AB48DC470DDF2ED13EE34EE34EE14
:10392C0034EE34EE34EE33EE12EE33EEF2EDB0DD77
:10393C0090DDB1E5B1E550DDEECCCDC4CEC4CEC446
:10394C00CFC4EFCC10CD30D551D571DD91DD91DDEB
:10395C0071D550D50FCDCEC4AEBCCEC4EFC40FC5FF
:10396C000FC5EFC4AEBC6DB46DB46DB42CAC4DAC26
:10397C000CAC2DAC2DACECA32DAC2DB44DB42CACAF
:10398C002CAC2CAC2BA40BA4EBA3CA9B6A93E882A3
:10399C006672A87A8772666AA77A87728672E882DC
:1039AC000883A772C87AC87AE8820883C77AA77A8C
:1039BC00466AE459A4516349424101310239E23863
:1039CC0002396449A551E6590662276A476A68724A
:1039DC00A97AA97AC97AC97AC972C97A67726772DF
:1039EC006772677267726772677267726772677203
:1039FC00466A47724772466A466A466A676AA87A96
:103A0C00A87A098B2DAC10CD30D50FD5CDC44BBCBD
:103A1C002AB4ACC42FD5B1E512EE13EE33F613EE87
:103A2C0013EE33F633F633EE13EE13EE33F670DD9E
:103A3C00CEC42FD5D1ED90E5EED4EED40ECD2ED54F
:103A4C002ED52ED52FD50ECD0FCD70DDB1E5B1E530
:103A5C0070DD0FCDCECCADC48DC4ADC4CEC4CEC440
:103A6C00CEC4CEC4AEC48DBC6CBC4CB46CBC6DBCF2
:103A7C004CB46DBC2CAC6DB44CB42CAC2CAC2CAC90
:103A8C00EBABAAA3699B69934993088B867AA67AB8
:103A9C00A77A0883E882A77AE882E882298B498B87
:103AAC00298BC87AC87AE882C87A8772256A4562F7
:103ABC00045A62490131C128C128C128C130E23001
:103ACC00023943418449C551065A47624762676AC5
:103ADC00886AA872A972C97AE97AC97A87728772D8
:103AEC0087728772677267726772677267724772E2
:103AFC00477267728772677267726772A872877291
:103B0C008772C8826A934DB4AEC46CBC8DC48CC42D
:103B1C00EDCC4FD5B1E512EE13F6F2ED13EE13EE3C
:103B2C0013EE33F654F633F613EE13EE33F64FD59D
:103B3C00EECC70DD90E50FD5EED40ED52ED52ED56E
:103B4C002ED52ED52FD50FD50FCD2FCD2FD52FD59B
:103B5C000FD5EECCEECCCEC4CDC4CECCCEC4CDC421
:103B6C00ADC48DBC8CBC6CBC6CBC4CBC2CB42CB42F
:103B7C002BB42CB4EBA30BACEBA3CAA3AAA3AAA3A0
:103B8C00699B2893E78AE78AE782A782E782C78244
:103B9C00C77A088B298B498B498BE882C77A0883B3
:103BAC00A77A6672466A66726672256A2562256213
:103BBC00C3512141C028A028C128E130E238E238A5
:103BCC00023943416449A451E551065A26624762C1
:103BDC00676A886AA872C97AC97AE97A8772877221
:103BEC008772877287728772877267726772677261
:103BFC006772677267726772677267728772266A1A
:103C0C0067728772867A6A9B8EC4EFCCEECC4FD5E6
:103C1C0090DD90E5D1E5F2ED13EEF3ED13EEF3ED5F
:103C2C00F3ED13EE33F633F612EEF2EDD1E590DD53
:103C3C0091E570DDEED4EECC0FDD0FD50ED5CDCCED
:103C4C00EECC2FD550DD2FD52FD50FD5EECCEFCC1C
:103C5C00EFCCEFCCEECCCECCADC48DC46CBC4BBC9D
:103C6C002BB40BB4EAABEAABCAABCAABCAABCAA3B4
:103C7C0089A3899B48934893078BC682E78AE78A76
:103C8C00078BC78AA682E782088BC782C782C78246
:103C9C00E782088BE782C782E78265726672A77A31
:103CAC006672456A466A6672A77A666A45622562DA
:103CBC00E45983492139E13002310231E238E238EA
:103CCC000239234143416449A451C551E559266247
:103CDC00476A676A686A8872A972C97AA87A877211
:103CEC006772677287728772877287728772677260
:103CFC00677267726772466A466A466A6772266AB4
:103D0C0067726772256A088B6EBC50DD70DDB1E599
:103D1C00B1E590E5B1E5D1E5F2ED13EEF2EDF2EDA2
:103D2C00F2EDF3ED12EEF2EDF2EDD2EDB1E5D1EDF7
:103D3C00D1ED70DD0ED52FDD4FDD0FDD0FDDADCC00
:103D4C00CECC70DD91E550DD70DD70DD50D52FD51A
:103D5C002FD52FD50FD5EECCADC46CC44BBC4BBC02
:103D6C002BBC0AB4EAB3CAABA9AB89A389A3689BE1
:103D7C0028930793C68AE78AC682857A86828682CA
:103D8C00C682C682857A867A867A45724572657253
:103D9C00C782E78266726572867A4572C77AE88254
:103DAC0086726672667266728772256AE459E45985
:103DBC00C45163490139C130C128C128E238E23805
:103DCC0002392341234143418449A451E559065A00
:103DDC0026622762476A686A8872A972887A877233
:103DEC00677267728772877287728772877287723F
:103DFC00677267724772477267726772677267722F
:103E0C006772A87AE8826A9B8EBC91DD91DDB1E580
:103E1C00B1E5B1E5D1E5D1E5D1E5F2EDD2E5F2EDD3
:103E2C00F2EDF2E5D2E5D2E5D2EDF2ED12EEB1E52E
:103E3C0050DD70E5B1ED90E54FDD50E530DDEED4B1
:103E4C002FDDB1EDB1E591E591E5B1E591E570DDE1
:103E5C0050DD70DD50DD2FDD0FD5CECCCDCCEDD4CB
:103E6C00CDCCADCC8CC46CC44BBC0BBCEAB3AAABF4
:103E7C00689BC68A657A857AA6828582A682A68286
:103E8C00A682A682657A857A657A4572A682657A5B
:103E9C00A682E782A67A867A867A66720883C87AC0
:103EAC006672466A466A466A466AE4590562E4598D
:103EBC00A3514241E130C028C1280231E238023915
:103ECC00023923412341434163496349C551C559D3
:103EDC00E55906622762476A686A88728772877238
:103EEC006772677287728772887A87728772877235
:103EFC0087726772466A466A4772466A466A677292
:103F0C006772A77A098B6A932CAC50D591DDB1E519
:103F1C0091E5B0E5D1E5B1E591E5D2E5B1E5B1E5E5
:103F2C00D1E5B1E5B1E5D2E5F2EDF2EDB1E5B1EDFA
:103F3C0070E570E5B1ED91ED50E590E52FDD70E5A4
:103F4C00B1ED91E591E5B1E5D2EDB1E5D2E591DDCB
:103F5C0091E591E591E591E591E550DD2EDD0EDDE4
:103F6C00CDD4ADCCADCC8CCC6CC44CC4EAB3EAB3E0
:103F7C00CAAB0793657A447A657A657A247224729F
:103F8C00036AE369036A2472247245724572046AF7
:103F9C0024722572046AE361C3610462C77A666A9B
:103FAC00256205620562677266720562E459C4593E
:103FBC0083494241E130A028C128E230E23802397D
:103FCC0023410239224123414341434164498451F5
:103FDC00A451C559E6592762676A686A8772877265
:103FEC008772887A887A887A8772877287728772E2
:103FFC0087726772466A466A266A266A266A6672FB
:10400C00466A466A8772877A298B2CB491DDD2E591
:10401C00B1E590DDB1E591E570DDB1E591DD91DDC6
:10402C0091DD91DDB1E5D1EDD2EDD1ED70E5F2EDA3
:10403C00F2F570E52FDD50E570E570E52FDD91EDC3
:10404C00D2EDB1EDB1E5B1E5B1E5D2E5D2E591DD69
:10405C0091E5B1E590E591E5B1E550DD0EDDEDD4EE
:10406C008CCC2BC42BBC2BC40BBCEAB368A389A38C
:10407C00AAAB289BE78AA682E78AC6824572657A34
:10408C00046AC369046A046AE369046AC361E3618C
:10409C00246AE461C361C361E3616672C77A256215
:1040AC00256A056205628772466A05620562045AD2
:1040BC00055AE45183410239E23002310239223986
:1040CC00023902390239024122412241234143493A
:1040DC0064498451C55906622762476A87728772A0
:1040EC00A87AA87AA87A887A877287726772877298
:1040FC00877267724772466A466A266A466A266AF9
:10410C00266A466A8772877AE8826A930FCDB2E58F
:10411C00D1E591DDB1E5B1E570DD71DD70DD70DD0E
:10412C0070DD70DDB1E5D1EDB1E591E5F2F5D1EDE4
:10413C00D1ED90E50FDD2FDD50E52FDD90E5D1EDD4
:10414C00F2EDF2F5F2ED91E590E5F2EDB1E570DD11
:10415C0091E5B1E570DD90E590E52FDD2FDDEED436
:10416C008CC40BBC0BBC0BBCEAB3AAAB89A369A374
:10417C00699BE78AE78AE78AE78AA6824572867A8C
:10418C004472246A6572246AC359C361C361246A88
:10419C00256AC359C359E461E4616672666AC359FE
:1041AC002562056205628772266A04620562045AFA
:1041BC00055AE45983490239E130E23002390239B7
:1041CC000239E238E23802392241224102414349A4
:1041DC00634964498451C55906622662A87A87727C
:1041EC008772A87AA87A8772877267726772677209
:1041FC0087728772877267724772466A666A466A06
:10420C00266A466A8772C87A4A93EBA38EBC91DD04
:10421C00D2E5B1E5B1E591DD90DD71DD90DD70DDCC
:10422C0050DD70DD91E5B1E5D1EDD1EDF2F5F2F5B2
:10423C00B1ED90E570E570E5B1EDD2F5F1EDD2EDB3
:10424C00D2EDF2EDF2EDD2EDB1EDB1E5B1E570DD0F
:10425C0070DD70DD4FDD4FDD90E54FDD2FDD0ED5D0
:10426C00CED4ADCC6CC42BBC0BBC2CBCEBAB8AA39E
:10427C00489BE78AC782A67AC782657A246A246A31
:10428C00046AC3598259A2598251C359A359256A48
:10429C00E461C359E46162514149A772E45942494E
:1042AC00835142490562C4598351625183518249F9
:1042BC00624983490139E130C128E230233902399E
:1042CC00E238023922412241224102412241434932
:1042DC00634963496449A451C551C551A87A877291
:1042EC00A87AA87A887A877267724772677267723F
:1042FC0067726772677267724772466A466A466A85
:10430C00466A6672A87AC87AC882098B0CAC30CD22
:10431C00D2E5D2E5B1E570DD91DD71DD50DD4FDD2B
:10432C004FDD4FDD70E590E5D1EDF2F5F2F5D2F50C
:10433C0091ED70E570E591EDD2EDF2F5F2EDF1ED68
:10434C00F1EDF2EDF2EDD1EDB1ED91E5B1E50FD579
:10435C002FDD4FDD70DD4FDD2FD50ED50FD5EFD412
:10436C00CECCAECC8DC44CBC2CBC2CBCCBAB8A9B69
:10437C002893C78A867A867A66724572C359A3597E
:10438C00A3598251825182516251A3592141C3597F
:10439C006251424901410141056209832562A351E1
:1043AC0083512141056283514249424962498351FB
:1043BC0083496249E130A028A02802310239023138
:1043CC00E230023902392241224122412241434941
:1043DC004349634964498451A551A5518772677259
:1043EC00887AA87A887A877287726772677267721E
:1043FC00677267726772677267726772466A466A3B
:10440C00266A466A677267728772C77A6A936DB456
:10441C0030CD91DDB1E5B1E5B1E570DD70E54FDD95
:10442C004FDD4FDD70E590E5B1EDD2EDB1ED90E5EE
:10443C0070E570DD90E5D2ED12F612F612EE12EE8A
:10444C00F1EDF2ED12F6F2F5B1ED71ED70E50FDD77
:10445C0050E54FDD2FD52FD50ED52ED50FD50FD539
:10446C00EFCCAECC8DC46DBC0CB4EBAB699B29937B
:10447C00C7824572E361246AE361256AA25141490E
:10448C00414941494149214900410141A038C459A0
:10449C002662466A2562E4592A83C87A666A2562CE
:1044AC000562C45926626349424983518251835142
:1044BC00A35183496241E130C12802310231E2301B
:1044CC00E2300231023902390241224122412241B9
:1044DC0043414349644984498449844967726772FA
:1044EC008772A87A8772877287726772677267722F
:1044FC00677267726772677267728772466A466A1A
:10450C00256A266A466A466A6772C87A298BCBA3E3
:10451C00AEBC50D5B1E5B1E5B1E570DD70E54FDD70
:10452C004FDD70E591E591ED90E570E54FDD70E5BF
:10453C0090E5B1EDD1ED12F612F612F632EE12EE66
:10454C00F2EDF2EDF2F5D2F571ED50ED0FE530E54F
:10455C0010E550E50FD52FDDEED40FD5EFCCEFCC19
:10456C00EFCCAEC46DC42CB4AAA3499B867A24723A
:10457C00C3614151004982596151046AA3512149D7
:10458C0041496251A359825162496251E461877277
:10459C00A772466A676A8772AC93C87A45624662AC
:1045AC00466A676A256221412141424921412141E4
:1045BC008349A349A349E130C1280231E130E130FC
:1045CC00E130E230E238E238023922412241224124
:1045DC0022414341644984498449844987728772E2
:1045EC00887A887A67726772877267726772677285
:1045FC0067724772477267728772887A456A466A31
:10460C00466A466A476A476A466A6772A77A298B7E
:10461C00EBA3EFCC50D52FD550DD50DD4FDD2FDD8A
:10462C002FDD70E590E590E570E570E570E5B1ED96
:10463C00F2F512F612F612F612EE12EE33EE12EE4E
:10464C00F2EDD2ED91ED51EDEFE48EDC2DD44DD4A5
:10465C002DCCCFDC0FDDCED4AECC6DC44CB44DBC68
:10466C004DBC2CB4EBABAAA32893E78A457AE3693B
:10467C00C36120518259E3610362867A6572C35922
:10468C000462456A8672456A256A256A666AC87A32
:10469C006672266A676A0983E87A0562466A056269
:1046AC002562E97A056242494249014121410039BA
:1046BC00424183498349E130E1302339C128E12863
:1046CC00E130E130E130E23802392241224122412D
:1046DC00224143416349844984498449887A8772D9
:1046EC00887A87726772877287726772877267724D
:1046FC00677247724772677287728772A77A66729F
:10470C00256A266A466A466A266A2662466A86725E
:10471C00288B6DB430D530D550DD50DD2FDD2FDD3D
:10472C004FDD4FDD2FDD2FDD4FDD70E590E5D1ED59
:10473C0032F633F632F612EE32F632F633F633F652
:10474C00F2ED91ED10E58EDC0DCCACC34ABB09B398
:10475C0029B36AB32DCCCBB30CBC0CBC0BAC0BACDF
:10476C00EBABCBABAAA38A9B499B28932893C78A14
:10477C00C78A857AC782078B088B4993498BA77A9E
:10478C00E77AC77AE77A86728672466A8772C77A40
:10479C0005620562256A2983266A266A46622562B5
:1047AC00676A09832562C459E459C459E459214103
:1047BC00E03821414241223922390231A128C12855
:1047CC00E130E130E130E23802392241424122410C
:1047DC00434163416449844984498449A87A887A6D
:1047EC00A87AA87A8772A87AA87A677267726772B1
:1047FC00677267726772677267726772C77AA77A35
:10480C00466A0562266A266A2662266A667266729D
:10481C00A67AEBA350D5D2E5B1E591E54FE54FDD96
:10482C002FDD2FDD0EDD2FDD4FE590E5B1EDD1ED68
:10483C0012F612F612EE32EE32EE32EE33EE13EEDA
:10484C00D3ED51E58FD4ECCB6ABB09B3A8AA87A2F0
:10485C00A8A20592E9A2CCBB0DBC4EC46DBC2CB475
:10486C000BACEBABEBABCBABCAABCAA3AAA3699BB0
:10487C00699B699B699B6993699349936993C77A0F
:10488C000883C77AE782867AC77A8672C77A877274
:10489C000562456AA77A0983256A66724662876A49
:1048AC00E97AA77226622562466A666A466A824976
:1048BC00013901390131424122398020C128C128F6
:1048CC00E128E128E13002392239224142414341B9
:1048DC00434163498449634163418441C87AA87A5E
:1048EC00A87AA87AA87AA87A887A677267726772A7
:1048FC006772677267724772466A466A8672A77AEF
:10490C008772466A266A06622662676A456A8672FA
:10491C00867A899BEFCC91E5B1E5B1E570E52FDDA9
:10492C000ED50ED54FDD70E590EDB1EDD1EDF2F574
:10493C0012F612F612EE12EE12EEF1E5F3EDF3EDC5
:10494C00B2ED10DD4DCC8BBBE9B288AA88AAC9B2F6
:10495C0088AAA4816792F1E48FCC8FCC6DBC2CB467
:10496C00CBABCAA3CAA38AA369A3699B699B699BA6
:10497C00499BAAA3499348934893078B8993E78251
:10498C00288BE782E782A77AE882C77A498B877AF5
:10499C00877266728B93E882C87AA77AC87A298361
:1049AC004A8B4662676A8772676A466A666A045A05
:1049BC00C4518349C030223923398020A120C12819
:1049CC00E128E128E13002392239224142414341B8
:1049DC00634984498449634163418341C87AC87AF5
:1049EC00C87AA87AA87AA77A877287726772677270
:1049FC0066728772877266726672466A466A8772D8
:104A0C00A8726772266A2662266A266A677287729D
:104A1C00A7824A936EBC72DDB3E571DD2FDD4FDDED
:104A2C004FDD50DD91E5B1E5B1E5D1E5D2EDD1ED4C
:104A3C00D1EDD1EDD1EDB1EDB1EDB1EDF2F5D2F5A8
:104A4C0092EDD0E4CDCBEAB2A9AACAAAA9A2A9AA8E
:104A5C0049B2C7A96599ADCBB0CC4DACEBB3AAA309
:104A6C00899B699B699369938993AA9B8A9B8A9B6F
:104A7C008A9BAB9B6A9B4993498B08838A9B298BA6
:104A8C00E882298BE8822883498B6A8B8A93088376
:104A9C004A8B6A93CB9BE8826A93298B4B938C9BB2
:104AAC00E98A877A877AA77A456A8672256A256A9F
:104ABC00466AC559C551E65903398128A120A22857
:104ACC00A228C228E2300239023923412341644929
:104ADC00844963496341634963496349A87AC87A45
:104AEC00C87AC87AC87AA87AA77A87726672677207
:104AFC00877287726672667266726672466A466AF8
:104B0C0087728872676A2662266A466A0562C8825C
:104B1C00098B298B0DB431D571DD71DD70DD90E51C
:104B2C0091E591E5B1E5B1E5B1E5D1E5B1E5B1E5E9
:104B3C00B1E590E590E590E5B1EDF1F5F2F5D2F542
:104B4C0071ED6FDC8CC3CAB2A9AAAAA2AAA2A9AAA7
:104B5C0049B2C7A9659989AA0DBCECA38A9B699B2C
:104B6C0049932893288B488B69938A9BAA9BAA9B71
:104B7C00AAA3AB9B8A9349936A8B298BCB9B8A9B69
:104B8C00498B6A932883498B6A938A93EC9B6A932B
:104B9C006A8B2DAC6A93498BCB9B498BCCA3298B0D
:104BAC00C882098BC782A77AA77AC77A466A8672A7
:104BBC0087728772886AA87247628028A120A2280F
:104BCC00A128C228E230023902392341434163490A
:104BDC006449634963498449A451A449A87AA87AD1
:104BEC00C87AE882E882C87AA87AA77A877287722C
:104BFC00877287728772667266726672666A466AB6
:104C0C00466A87728772476A26620662266AA87AA3
:104C1C004A934A9349932DB451D571DD70DDB1E5BA
:104C2C00D1EDB1E5B1EDB1E591E5B1E590E591E5F9
:104C3C00D1EDF1EDF1EDD1EDD1EDD1ED12F6F2F5C5
:104C4C0051ED2DD42BBBCAB2AAAACAAAEAAAAAAA07
:104C5C0089B228B2C6A1C5894BA36B9B2893289314
:104C6C00088BC782E7820883498B298B6993499308
:104C7C008A9B8A9B6A936A936A936A8BECA3AB9B1D
:104C8C00498B498B298B498B6A8B8A93CB9B6A8B7B
:104C9C00AB93AB9B298B6A93298BAB9BECA329938E
:104CAC00E88AC882A77AA77AE882A77A8672C77A36
:104CBC00666A8772097B2A83676AC1308120A120CA
:104CCC00A128C130E230E230023923416449634902
:104CDC00434943418349A451C551A451A87AA87AA8
:104CEC00C87AC87AC87AC87AC87AC87AC87A8772F1
:104CFC00667266728772877266726672676A666AB5
:104D0C00466A466A87728772466AE561466A6672C7
:104D1C00298B6A93E88249938EBC31D570DDB1E55D
:104D2C00D2EDD1EDD2EDD1EDB1E5B1EDB1EDB0E516
:104D3C00B0E5B1EDD1EDD2EDD1EDD1EDB1ED91ED1F
:104D4C0010E5ECCB0ABBCAB2CAB2EBAA2BABCAAA0F
:104D5C00CAB2AABA48B2A589A99AE992E88AC782C6
:104D6C00A682A67AC77AE8820883E882E882E8827B
:104D7C0049934A936A938B938B938B932DAC8A9321
:104D8C0008830883298B298B298BAB93CC9B6A8B4B
:104D9C000CA4C87A298B08830883CCA3088B088BB6
:104DAC00088BC77AE782A67A867A6672456A86721B
:104DBC00C87AE87A6A8B4A8BC451E038A128A020C3
:104DCC00C128E230E230E1300239434164496349A1
:104DDC00434143418449A451C451A451C87AC87A6F
:104DEC00C87AA87AA87AC87AC87AC87AC87A877230
:104DFC00677267726772877287728772466A466AD1
:104E0C0025622662666A87728772466A05628772B5
:104E1C00A87A09836A93298B6A936EB450DDB2E544
:104E2C00F2EDD2EDF2EDF2F5D1EDB1EDD1EDB1ED5A
:104E3C00B1EDB1EDB1ED90E570E550DD0ED5EED4F0
:104E4C008ED4ACC3EABACABAEBB24CBB6CB30AABE5
:104E5C00EAB2EBBA69B2E799068A4782877A467A50
:104E6C004672867AA77A87728772A77AC77AC87AC7
:104E7C00098B298B298B8B93AB9BCC9B4EAC4A8B90
:104E8C000883298B4A8B08832983EC9BEC9BEC9B36
:104E9C00CB9BC87AE882C882CB9B298BA67A867A70
:104EAC00867A867AC78286728672867A456A256A7F
:104EBC00E7820883A772C77A256241490231A0288C
:104ECC00A028E230E130E1304341A4514341434159
:104EDC00434163498449A451A451A449C87AC87A6E
:104EEC00C87AC87AC87AA87AA87AA87AC87AC87A06
:104EFC00C87AA7726772666A8672A77A666A466A09
:104F0C00466A466A466A2662666AA87A676AA87220
:104F1C008772C87A4A8B4A934A93AB9B30D5B2E5D9
:104F2C0013EE13EEF2F5F2F5D1ED90E54FE56FE5EA
:104F3C0090E56FE50ED5ADCC8DC48DC4ADC4ADCCB4
:104F4C00AED4CCC3EABACABACBBA6CBBCDBB6CB3C9
:104F5C002BB30BBBAAB248A2C581C5790572E56912
:104F6C00056A466A256AE4610462266AA77AA77A0A
:104F7C000983E982E8824A8B8B93CC9B0DA429830D
:104F8C002983498B2983E87A0983EC9BAB9B2DAC55
:104F9C006A8BE8820883AB9B8A93A77AC67A657280
:104FAC00657285726572867AA77A4572456A8672D1
:104FBC006572256A04622462A67224628341E13020
:104FCC00A028C030C13002396449A4512341434167
:104FDC00634984498449A451A451A451C87AC87A1C
:104FEC00C87AC87AA87AA87A87728772A77AC87A98
:104FFC00C87AC87AA77A677267728772A772666A6C
:10500C00666A666A2662056226626772E982C87AF7
:10501C00C87AC87AC87A298BAB9BAB9B8EBC51D50E
:10502C00F3E5D2EDB1E590E54FDD0ED5CDD4ADCCA9
:10503C008CCC4BC42BBC0BB44CBC6CC4EECC0FDD79
:10504C0030E50DCC0ABBEBC2EBBA6CBB0EC40EBC8C
:10505C00ADBB6CC30BBB69AAC689A581A461846175
:10506C00A461C461C459A451A451C4592662266ACE
:10507C00C87AA87AA87A2A8B6B93CC9B8B93097BE2
:10508C004A83E87AE87A0883498BAB93CB9BCC9B19
:10509C002983E882AB9BECA3A77AC77A65728572E9
:1050AC00C67AC67A657286724572C3616672A77AD1
:1050BC000462E361246A446A6572656A055242417E
:1050CC00E130C030E1386349A451434123414341AD
:1050DC006349844984498451A451C551C87AC87A1A
:1050EC00A87AA87AA87287728772A8726772677298
:1050FC00A772C87AE882C87AA87A8772C87AA77227
:10510C00666A466A2562266226620562C87A098347
:10511C002A83E97AA77AE87A6A93CC9BECA3F0C449
:10512C00B2DDB2E570DD0FD5ADCC8CC44BC40ABC7E
:10513C000ABC2ABC6CC4ADCCEECCEED42FD570E539
:10514C0092F52ED42BC30BC30BBB6DBB0EBC6FC423
:10515C00EEBBEECB8DC369AA0792A58123592251D0
:10516C0022516351A459C459C459A451A451E559AD
:10517C00A87AA87AC87A4A8B6B93CC9B6B8BE97A0A
:10518C0029838772A7724A8B8B936A8B0CA4088332
:10519C00A7720883EC9B8672456A256AA67AE78219
:1051AC00867286724572E361A359867AE882E4615D
:1051BC00A359A259A25904622362246A6662E4517B
:1051CC00624121394241E551C551013942414341C6
:1051DC004341634964498449A451A451E982E97A61
:1051EC00C87AA87AA8728772877287726772666AA1
:1051FC0067728772C87AC87AE87AE982A77287726E
:10520C0087726772266AE5610562466A6772E9828F
:10521C002A8BE9828772A872098309838A934DAC21
:10522C0010CD92DD50D5ADC48DC44BBC2BBC4BC442
:10523C008CCCEDD40ED50ED52FD591E5B1E591E5FD
:10524C00D3F5AFDC4BC32CC32CC3AEC32FC44FBCA4
:10525C002FC40FCC8DC3CAB248A2C689A469A14879
:10526C00E14822512249A451C5598451634943490B
:10527C00887267728872A87A2A8BAC93A87287722C
:10528C00C87AA772C8722A836A8BAB9BE882A77A0A
:10529C00C77AECA386720462E4612562456A2462D3
:1052AC000462E461E461256AA77A098BE461046A0B
:1052BC00E361A359C359E3610362C259255A66627B
:1052CC0042410139C451A44922412239424143414E
:1052DC0064498449644964498449A451C87AC87AA8
:1052EC00C87AC87AA87AA87A877287728772877206
:1052FC006772877287728772A87AE8820883E87A65
:10530C00C87A8772256A0562266A87728772A872C4
:10531C00E97A2A832A83C87A466A05628772AB9B2C
:10532C00AFBC51D530D5CECCCECCCECCEED40EDD60
:10533C002EDD2EDD0EDD2FDD70E5B1E5B1E5B1E53D
:10534C00F3F511E54BBB4CC36DC3EFCB2FC46FC44E
:10535C006FC44FCCCECB2CBBAAAA0792C571C14847
:10536C0080400249435122490241E13802418351B4
:10537C00266A26620562266AC87A8B93C872E97A15
:10538C0046624662666A6A8BAB9309838672667262
:10539C00CC9BE882456A256AA77A66722462E3612F
:1053AC00456A667266724A8BAB9BC7824672056A07
:1053BC00046A046AC36182516151C259045A055A84
:1053CC006249C45126622241A030434122414341EB
:1053DC0063496449844984498451A451A87AA87AC0
:1053EC00C87AC87AC87AA87AA872877287728772C4
:1053FC0087726772666A666A8772A87AE87AE97A4F
:10540C00E982C87A8772676A466A676AE97AC87AF3
:10541C0067726772E97AE97A676A0562476AE982B4
:10542C006A930DACAEC4AEC4EECC2FD570E570E56E
:10543C0090E56FE54FDD70E590E590E5B1E5F2EDB7
:10544C0014F6D4FD8CC36CC38DCB0FCC2FC470C49D
:10545C0090C490CC2FCC8DC30BB32892278264615F
:10546C00A148E2482351C138A030E138E138224943
:10547C00E561A459A459A459E882E87A2562056229
:10548C0005622562666ACC9B4A8B6672256AAB9B69
:10549C006A932562E882E882A77A8672C87AC77A0C
:1054AC0009838A93CB9BCB9B4A8BA77A256A056A87
:1054BC00E461E461C359A259C3590462E459C3516C
:1054CC00876AE97AE5592241424102394341434115
:1054DC00634964498449844984498449A87AA87AEF
:1054EC00A87AA87AC87AC87AA87AA87A87728772B2
:1054FC00877287726772666A466A466A8772A87292
:10550C00C87AE982E982E982A87A6772887AE982A4
:10551C0088722662266A676AA8722A83C97A887298
:10552C00A87A8B9B4DB42DB46DBC50DDB1E5B1E5C3
:10553C00B0E590E56FE56FE56FE52FDDD1E512EE97
:10554C0054FE76FE2ECC6CBBAECB2FCC4FC470C4AD
:10555C0090C490CC4FCCEEC34CB3899A2782C679B9
:10556C000259A040E148E140A03822410241A0305C
:10557C00266242492149224909830562C459E559E9
:10558C000562A3510DA44A8B256A256A6A93298B5F
:10559C002562A772A77AC77AC77A08830983298BF1
:1055AC006A93CB9BAB9B0883877AC77A8672456AD2
:1055BC00E461E461456A867286726672C772E87A43
:1055CC00E87A466242410139224102394341434162
:1055DC004341634964498449A451A451A87AA87AE7
:1055EC00A872A87AC87AC87AC87AC87AA872877258
:1055FC006772677267726772466A266A666A877232
:10560C0087728772C87A2A8B4A8B4A8BC87AA87A97
:10561C004772266A266A05622662C97A6B932B8BBF
:10562C00C982E982AC9B2DAC4DB4CEC471DD90DD4A
:10563C0090E570E54FDD4FDD6FE5B0ED32F633F6FA
:10564C0054F696FED0D46CBBCECB70D470CC90C438
:10565C0090C4B1CC70D42FCCADBBEAA2488AE68101
:10566C006469A148C1480249E14063514349E140A2
:10567C0087728351835105628A938772666A466A80
:10568C0005628A930CA4C459256A498B298B046240
:10569C008672C77A456A6672A77A088309836A9309
:1056AC000DA4ECA30883A77AA77A6672A67A8672F1
:1056BC00867286726672666AA77A09832983A772D4
:1056CC00256263490139E138E1380239224123412D
:1056DC004341434164498449A451C551A87AA872F5
:1056EC0087728872A87AA87AC87AC87AE982A87A66
:1056FC006772466A466A67726672466A676A87723A
:10570C00676A266A466AC87A4B93AC9B8C9B0A8B59
:10571C00677205620562C459C459266AA97A6C93EA
:10572C00EEA3AC9BE982A77A4993AEBC0FCD50D5C2
:10573C0050DD2ED5EDD4EDD46FE532FE74FE74FE43
:10574C00B5FEB6FE73E5CDBBCEC350CCB1D4B0CC58
:10575C0090C4B1CC91D450CC0EC46CAB899A278A2E
:10576C00E67943618040A04063516772677287722B
:10577C004A8B8772298BAB9BAB9B0883E87AE87AC0
:10578C006A8B6EB4466A456A4A93498B056AA77A56
:10579C00A77A666A6672456A456AE77A6B93CC9B10
:1057AC00CC9B298B6672456A6572456A86728672D5
:1057BC008672456A466AA77A29838B932983A772D6
:1057CC0087724662C4518349634964490239234153
:1057DC0043416449644984498451A4518872887254
:1057EC008872887288728872A772A772E87AC87AEF
:1057FC00A872676A666A676A87728772677287724D
:10580C00676A266A466A8772E9822A8B6B936B9366
:10581C004A8BA87AE561C4590562677288728872EE
:10582C008C934FAC8C9B66726672CBA3EFC470DD0D
:10583C004FD5EDCCCDCCCCCC0DDDD0F574FEB5FE7A
:10584C00B5FE75F6D4ED2FCCCDC32FCCB1D4B0CCE6
:10585C0090C4B1D4B1D490D450C4EEB3EAA248925F
:10586C002782C5718040603847726B93CC9BEDA347
:10587C00CC9B6A93CC9BECA3498B08838A932DAC6D
:10588C008EB4A77AE882ECA36A93256AA77AC77AC2
:10589C000462867266720462A7728A930DA4ECA3EA
:1058AC000983667286728672A67A498BA67A6572AD
:1058BC00246A656A298BEC9BCC9B4A8BE882088313
:1058CC008772E559E5596349E2386449644964498A
:1058DC00644964496449644963498449A872A8725B
:1058EC00A87AA87AA872A87287728772A772C87AE7
:1058FC00E87AA8728772676A676A87726772676AE2
:10590C00676A466A6772A87AC97AC87AE982E982B4
:10591C006B93CC9B4A8B6772266A466A8872EA82C2
:10592C004B8B0A832A8BCC9BAB9B298BAEBC50D563
:10593C002FD5CDCC2ED54EDD4EE5D0F553F694FEBD
:10594C0033EED2DD92E590CCEEC391DCD1D4B0CC69
:10595C0090C4D1D4D2DCB1D491CC4FC44BB3899A7E
:10596C0027824782225922516B93CD9B0DA40DA403
:10597C00ECA36A938B93498BCB9B0CA46EAC6EAC53
:10598C00498B6A934EB4ECA34572298B4672256AF7
:10599C008672666AA772E87A498BAB9B4A8BE9825E
:1059AC00C87AE882E77AC77AA67A8572446A456A29
:1059BC00C77A8A93CB9B8B934A8B2A83E87A0562AE
:1059CC0005622562E559845102390239A551844991
:1059DC00644964496449844984498451A872A87211
:1059EC00A872A872A872A872A872A872A7728772FD
:1059FC008772C87AC87A8772676A8772666A666ABB
:105A0C00466A666A8772A87AC87AE97AA87A88722E
:105A1C008872C97AAC9B4FAC0EA44B8BC87A2A8384
:105A2C006B93A87A066AA882ECABCFC40FCD70DD5D
:105A3C006FDD4FDD90E5B1E5B1EDD2ED53F633F608
:105A4C00D2E510D5CFCC6FC42FC490CCD2D4D2D445
:105A5C00B1CCB1CCF2D4F1CCD1CCB0C4EEBB0A9B5E
:105A6C006882E671677A2A93ECA32EACECA3ECA3C4
:105A7C002993AB9BECA36FB46EB42DAC6EB46A934C
:105A8C004A93ECA3CB9B498BAB9BA6722462456AD1
:105A9C00456A256AE87A8B934A8B87720883E88279
:105AAC00498B498B6672E459E4610462456AE7826A
:105ABC006A93288BA67AA67AC77A8672456A456A53
:105ACC00666A25620562E559424122412341A4518F
